:020000040800F2
:1000000030090020290200085B1F0008011D0008BC
:10001000591F0008490500081926000800000000C3
:100020000000000000000000000000005F1F00084A
:100030004B050008000000005D1F0008A91F000814
:10004000430200084302000843020008430200087C
:10005000430200084302000843020008430200086C
:10006000430200084302000843020008430200085C
:10007000430200084302000843020008430200084C
:10008000430200084302000843020008430200083C
:10009000430200084302000843020008430200082C
:1000A000430200084302000843020008430200081C
:1000B000430200084302000843020008430200080C
:1000C00043020008430200084302000843020008FC
:1000D000430200080D2600084302000843020008FE
:1000E00043020008430200084302000843020008DC
:1000F00043020008430200084302000843020008CC
:1001000043020008430200084302000843020008BB
:1001100025230008430200084302000843020008A8
:10012000430200084302000843020008430200089B
:100130004302000800000000000000004302000825
:10014000430200084302000843020008430200087B
:10015000430200084302000843020008430200086B
:10016000430200084302000843020008430200085B
:1001700043020008430200080000000000000000E5
:10018000430200084302000800F002F800F03CF8C7
:100190000AA090E8000C82448344AAF10107DA45E2
:1001A00001D100F031F8AFF2090EBAE80F0013F0F8
:1001B000010F18BFFB1A43F0010318471C2B000066
:1001C0003C2B0000103A24BF78C878C1FAD85207F7
:1001D00024BF30C830C144BF04680C6070470000C1
:1001E0000023002400250026103A28BF78C1FBD840
:1001F000520728BF30C148BF0B6070471FB502F0DF
:1002000054FD1FBD10B510BD00F0CFF81146FFF72B
:10021000F5FF02F025FA00F0EDF803B4FFF7F2FF66
:1002200003BC00F0F5F80000094880470948004782
:10023000FEE7FEE7FEE7FEE7FEE7FEE7FEE7FEE796
:10024000FEE7FEE704480549054A064B70470000F3
:1002500041200008890100083003002030090020F7
:10026000300500203005002053EA020C00F06980C0
:100270002DE9F04B4FF00006002B1FBFB3FA83F5BA
:1002800003FA05F424FA05F65E4012BF1643B2FAEB
:1002900082F502FA05F4C5F120051EBF22FA05FC1D
:1002A00044EA0C04203556EA044C4FEA144418BFC3
:1002B000641C4FF000084FF00009904271EB030CF2
:1002C00039D3002919BFB1FA81F701FA07F6B0FA5C
:1002D00080F700FA07F6C7F120071EBF20FA07FCD7
:1002E00046EA0C062037B6FBF4FCA7EB0507103FE7
:1002F00007F01F0BCBF120060CFA0BFB2CFA06F6CD
:1003000044BFB3460026202FA4BF5E464FF0000B2B
:100310005BEA060C08BF4FF0010B19EB0B09ABFBB6
:10032000027C48EB0608C01B06FB02CC0BFB03CC8F
:1003300071EB0C01C1E70B46024641464846BDE859
:10034000F08B13B54FF000004FF00001AFF30080C9
:10035000BDE81C4070474FF0000200B513469446BC
:100360009646203922BFA0E80C50A0E80C50B1F10D
:100370002001BFF4F7AF090728BFA0E80C5048BF21
:100380000CC05DF804EB890028BF40F8042B08BFBF
:10039000704748BF20F8022B11F0804F18BF00F8BB
:1003A000012B7047704770477047754600F02CF876
:1003B000AE4605006946534620F00700854618B052
:1003C00020B5FFF73FFFBDE820404FF000064FF09B
:1003D00000074FF000084FF0000B21F00701AC467A
:1003E000ACE8C009ACE8C009ACE8C009ACE8C00999
:1003F0008D46704710B50446AFF300802046BDE837
:100400001040FFF70ABF000000487047D0020020EC
:1004100001491820ABBEFEE726000200704700002D
:10042000464910B54A6822F440324A604A68436837
:100430001A434A6001684A6822F480724A6001687F
:100440004A68036942EA03224A6001684A6822F066
:1004500040724A6001684A6883681A434A600168CA
:100460008A6822F400628A6001688A68C3681A4355
:100470008A60816A6FF07062D14201688A6822F0F6
:1004800070628A6001688A680CD0836A1A438A6045
:1004900001688A6822F040528A6001688A68C36AEB
:1004A0001A4301E022F040528A6001688A6822F013
:1004B00002028A6001688A68037E42EA43028A6017
:1004C00090F82010002901684A680FD042F40062B9
:1004D0004A6001684A6822F460424A6001684A68DA
:1004E000174C436A04EB43331A4301E022F40062E1
:1004F0004A600168CA6A22F47002CA620168CA6A64
:10050000838B104C04EB03531A43CA6201688A6858
:1005100022F400728A6001688A6890F8303042EAFA
:1005200043228A6001688A6822F480628A600168D6
:100530008A68406942EA8020886010BD002301403B
:1005400000E0FFFF0000F0FFFEE7704772B6FEE735
:1005500078B50024009490F83C20012A19D001229B
:1005600080F83C200A6807230568092A13D9EE6839
:100570000A3A02EB420293409E43EE600B788A688F
:100580000A3B03EB43039A400368DD682A43DA60C1
:1005900010E0022078BD2E6902EB420293409E4398
:1005A0002E610B788A6803EB43039A4003681D6948
:1005B0002A431A614A681F23072A13D205686E6B03
:1005C000521E02EB820293409E436E630B790A88AF
:1005D0005B1E92B203EB83039A4003685D6B2A4370
:1005E0005A6327E005680D2A12D22E6BD21F02EB48
:1005F000820293409E432E630B790A88DB1F92B2DE
:1006000003EB83039A4003681D6B2A431A6311E0CE
:10061000EE6A0D3A02EB820293409E43EE620B7942
:100620000A880D3B92B203EB83039A400368DD6AAC
:100630002A43DA62164B0568144A9D4206D10D68BA
:10064000122D03D1556845F48005556005689D421B
:1006500018D10B68102B01D0112B13D1536843F420
:1006600000035360096810290CD10A490A4A096835
:10067000B1FBF2F101EB8101490000E0491E00915C
:100680000029FBD180F83C40002078BD00230140C8
:10069000002001407800002040420F000068C06C3C
:1006A000704770B504004FF0000503D0206C0026A1
:1006B00010B107E0012070BD204600F01DF866640F
:1006C00084F83C60206CC00610D4206C20F4885064
:1006D00040F0020020642046FFF7A2FE6664206C12
:1006E00020F0020040F00100206400E0012584F8C1
:1006F0003C60284670BD000010B586B00446142149
:100700006846FFF728FE1149206888421CD110482E
:100710000021026842F480720260006800F4807078
:1007200005900B481438026842F004020260006829
:1007300000F004000590042000900320CDE90101A1
:100740006946044800F068F906B010BD0020014079
:1007500044380240000802402DE9F0410446006898
:100760000D4681684FF0000749050BD58068C0052C
:1007700008D5206C40F02000206484F83C700120F3
:10078000BDE8F08100F04AFA064613E0681C11D07B
:1007900025B100F043FA801BA8420BD920680068FD
:1007A000800707D4206C40F00400206484F83C707B
:1007B0000320E5E7206800688007E7D521686FF02F
:1007C00012000860206C40F400702064206881688A
:1007D00011F0405F13D1217E89B9C16A11F4700F05
:1007E00002D0806840050AD4206C20F48070206418
:1007F000206CC00403D4206C40F001002064002071
:10080000BEE7000018B50021009190F83C20012AB5
:1008100007D0012280F83C2002689368DB0702D0F1
:1008200011E0022018BD936843F0010393602E4A43
:100830002E4B1268B2FBF3F202EB420200E0521EB2
:100840000092002AFBD102689368DB0742D0036C58
:1008500040F20164A34343F48073036453685B056F
:1008600005D5036C23F4005343F480530364036CF5
:10087000DB0404D5436C23F00603436400E04164C9
:1008800080F83C101A496FF0220313604968006831
:10089000CA06184906D0884224D1816811F0405F09
:1008A00013D01FE08842F8D0134A904203D1D1F808
:1008B0000423D206F1D0114A904213D1D1F8041387
:1008C00001F01F011029E8D30CE0816841F080415C
:1008D000816007E0016C41F010010164416C41F05E
:1008E00001014164002018BD7800002040420F0043
:1008F000002301400020014000210140002201406E
:1009000090F83C1001290CD0012180F83C100168BE
:100910008A6822F001028A6001688968C90702D0EA
:1009200007E002207047016C21F4885141F0010179
:100930000164002180F83C10084670472DE9F04121
:100940000446876D00F06AF9064694F835000025E4
:10095000022806D08020606584F834500120BDE86C
:10096000F0812068016821F016010160206841696A
:1009700021F080014161206C08B9A06C20B1206891
:10098000016821F0080101602068016821F001017F
:1009900001600CE000F042F9801B052807D92020F7
:1009A0006065032084F8350084F83450D7E7206868
:1009B0000068C007EED194F85C103F208840B86012
:1009C000012084F8350084F834500020C7E790F8FF
:1009D0003510022903D0802141650120704705218F
:1009E00080F835100068016821F0010101600020E5
:1009F0007047000070B5044600F010F90546601C11
:100A000002D004480078044400F008F9401BA042DA
:100A1000FAD370BD6C0000202DE9F84FDFF8BCA1BF
:100A2000002201250AF1040B03264FF00F090BF1F8
:100A3000040E00BF0B6805FA02F42340A34270D1F4
:100A40000F7907F00307012F01D0022F16D1876815
:100A50004FEA420806FA08FC27EA0C07D1F80CC056
:100A60000CFA08FC4CEA070CC0F808C04768A7431A
:100A70000C79C4F3001494403C4344600C79E44383
:100A8000A4070AD0C4684FEA420C06FA0CF7BC432C
:100A90008F6807FA0CF72743C7600C7904F003044A
:100AA000022C12D1D40800EB840CDCF8204057074C
:100AB000FF0E09FA07F824EA0804D1F8108008FAB2
:100AC00007F848EA0408CCF8208004684FEA420C92
:100AD00006FA0CF7BC430F7907F0030707FA0CF787
:100AE000274307604C6814F4403F70D03C4C2768A3
:100AF00047F480472760246822F0030704F4804409
:100B00000094384C07EB040CDCF8084897074FEAD0
:100B1000177809FA08F7BC43334FB84202D10027CF
:100B200024E054E0314FB84201D101271EE0304F9C
:100B3000B84201D1022719E02E4FB84201D1032754
:100B400014E02D4FB84201D104270FE02B4FB842DB
:100B500001D105270AE02A4FB84201D1062705E056
:100B6000284FB84201D1072700E0082707FA08F705
:100B70002743CCF80878DAF800405746D1F804C08B
:100B80009C435FEACC3C00D51C433C60DBF8004052
:100B90005F46D1F804C09C435FEA8C3C00D51C43FF
:100BA0003C60DEF800407746D1F804C09C435FEA21
:100BB000CC2C00D51C433C60084F0C373C68D1F866
:100BC00004C09C435FEA8C2C00D51C433C60521C43
:100BD000102AFFF42FAFBDE8F88F0000003C014061
:100BE000443802400030014000000240000402404E
:100BF00000080240000C02400010024000140240B5
:100C000000180240001C02400069084000D001208A
:100C100070470AB1816170470904FBE701488068A9
:100C2000704700006C00002002488168027811447F
:100C3000816070476C0000200B4810B5016841F4DA
:100C400000710160016841F480610160016841F454
:100C500080710160032000F06FF80F2000F006F8AB
:100C600000F024F8002010BD003C024070B50D4D8E
:100C700004464FF47A712878B1FBF0F00A4909680C
:100C8000B1FBF0F000F00AFB48B9102C07D20022AB
:100C90002146501E00F030F800206C6070BD01202D
:100CA00070BD00006C000020780000200A4808B5E4
:100CB000016841F480410160006800F480400090C8
:100CC0000548001F016841F080510160006800F094
:100CD0008050009008BD000044380240002809DB25
:100CE00000F01F02012191404009800000F1E02046
:100CF000C0F8001170470000F0B40E4B1B680C46A2
:100D0000C3F30223C3F10705042D00D90425191DDF
:100D1000072901D2002300E0DB1E012606FA05F1B7
:100D2000491E214099409E40761E16403143F0BC3A
:100D300001F073BC0CED00E0064900F00702086802
:100D40004FF6FF03184040EA0220034A10430860B0
:100D5000704700000CED00E00000FA052DE9F047B7
:100D60000E46050065D0DFF81481D8F80000F7B210
:100D700000F00700B04207D288F80070D8F80000F1
:100D800000F00700B04254D128683D4C810712D5CD
:100D9000400703D5206840F4E05020602878000721
:100DA00003D5206840F4604020602068A96820F0E6
:100DB000F000084320602878C0072DD030496868CB
:100DC0000839012812D0022813D0032811D009684D
:100DD000890700292DDA216821F0030101432160F0
:100DE000FFF71CFF814641F2883A0EE0096889034B
:100DF000EFE709688901ECE7FFF710FFA0EB0901B5
:100E0000514502D90320BDE8F0872068696800F0E9
:100E10000C00B0EB810FEFD1D8F80010404601F084
:100E20000701B14207D90770006800F00700B0421F
:100E300001D00120E7E72878400705D52068E96858
:100E400020F4E050084320602878000706D5206889
:100E5000296920F4604040EAC100206000F038F8C1
:100E60002168084AC1F30311515CC8400649086073
:100E700006480068FFF7FAFE0020C4E7003C024085
:100E800008380240BE2C00087800002070000020C6
:100E90000448054900680968044AC1F38221515C8D
:100EA000C84070477800002008380240CE2C000867
:100EB0000448054900680968044AC1F34231515C9D
:100EC000C84070477800002008380240CE2C000847
:100ED000154810B5006810F00C02144813D04110EA
:100EE000042A0FD0082A0ED10F4C241F2268236831
:100EF00002F03F025B0207D52068C0F38810A0FB18
:100F0000010106E0084610BD2168C1F38811A1FB6C
:100F100000010023FFF7A8F92168C1F30141491C32
:100F20004900B0FBF1F010BD083802400024F40085
:100F30002DE9F84F04006ED02078DFF84C93C007FD
:100F4000A9F104054AD009F104000168C1F3810147
:100F5000012908D00068C0F3810002280AD1D9F81D
:100F60000000400206D52868800337D56068002855
:100F7000E1D033E06068B0F5803F10D0B0F5A02F2D
:100F8000286810D020F480302860286820F4802061
:100F900028606068A8B1FFF741FE06460DE02868AA
:100FA00040F48030F4E740F480202860F7E700BF89
:100FB000FFF734FE801B642873D828688003F7D5B8
:100FC0000CE0FFF72BFE064605E000BFFFF726FE0C
:100FD000801B6428F0D828688003F7D42078DFF8D5
:100FE000AC8280074FF0000A3ED5A748001D01687B
:100FF00011F00C0F08D00068C0F3810002280BD15B
:10100000D9F80000400207D42868800716D5E068A8
:10101000012800D112E033E1E068B8B10120C8F83E
:101020000000FFF7FBFD064605E000BFFFF7F6FDF9
:10103000801B0228C0D828688007F7D52868216956
:1010400020F0F80040EAC10028600DE0C8F800A0D8
:10105000FFF7E4FD064604E0FFF7E0FD801B0228F1
:101060001FD828688007F7D42078000722D5864F3C
:1010700087486169703771B101210160FFF7CEFDCA
:10108000064604E0FFF7CAFD801B022809D838682D
:101090008007F7D50EE0C0F800A0FFF7BFFD0646B9
:1010A00005E082E0FFF7BAFD801B02287DD8386892
:1010B0008007F7D42078400768D5DFF8CCB1002747
:1010C0000BF13C0BDBF80000C0000BD4DBF8001088
:1010D00041F08051CBF80010DBF80000012700F050
:1010E000805000906B4E3068C00510D4306840F4DA
:1010F00080703060FFF792FD009005E0FFF78EFDF5
:101100000099401A022850D83068C005F6D55E4EC6
:10111000A0686C3601280FD00528306810D020F068
:1011200001003060306820F004003060A068B8B181
:10113000FFF774FD00900FE0306840F00100F4E725
:1011400040F004003060F7E7FFF768FD0099411AAE
:1011500041F28830814266D830688007F4D50EE0CD
:10116000FFF75CFD009007E0FFF758FD0099411A7A
:1011700041F28830814256D830688007F4D42FB1CC
:10118000DBF8001021F08051CBF80010A069C8B343
:101190003D49091D0968C1F3810102294AD002288D
:1011A000504607D0C8F8600000E03CE0FFF736FD8D
:1011B00004463BE04746C8F86000FFF72FFD0646AF
:1011C00005E000BFFFF72AFD801B02282BD8286806
:1011D0008001F7D4D4E907010843A16A2E4A4908DF
:1011E00002EB0141626A41EA8211084394F82C1033
:1011F00040EA0161C9F8001001203866FFF70EFDD2
:10120000044606E03EE000BFFFF708FD001B022891
:1012100009D828688001F7D534E000BFFFF7FEFC4D
:10122000001B022802D90320BDE8F88F286880013E
:10123000F4D427E00128F7D0D9F80000E26900F4DF
:10124000800191421CD1226A00F03F01914217D1E6
:1012500047F6C071626A0140B1EB821F10D1A26AE9
:101260004FF0FF3300F4403103EB5202B1EB024F79
:1012700006D194F82C1000F07060B0EB016F01D033
:101280000120D1E70020CFE70438024000004742A8
:10129000800E4742007000400000FFFF10B5401E66
:1012A000B0F1807F01D3012010BD4FF0E0246061D8
:1012B0000F21601701F0B1F90020A0610720206123
:1012C000002010BD10B590F83C20012A22D0012248
:1012D00080F83C20CA688C6822F4407222434C6833
:1012E00022F4806222430C6822F4006222430C69DB
:1012F00022F4805222434C6922F400522243C969ED
:10130000002322F480420A4301684A6480F83C309A
:10131000002010BD022010BD70B590F83C20012ABD
:1013200032D0012480F83C40022280F83D2003683E
:101330005A689D6822F070060A6832435A60134B5F
:1013400002689A4214D0B2F1804F11D0104B9A42E9
:101350000ED0104B9A420BD00F4B9A4208D00F4B35
:101360009A4205D00E4B9A4202D00E4B9A4204D1BB
:10137000496825F080031943916080F83D400021C1
:1013800080F83C10084670BD022070BD000001408E
:101390000004004000080040000C00400004014030
:1013A000004001400018004010B5040003D094F83C
:1013B0003D0010B107E0012010BD002084F83C0082
:1013C000204600F01FF8022084F83D00211D20680F
:1013D00000F03EFE012084F8460084F83E0084F8C8
:1013E0003F0084F8400084F8410084F8420084F80B
:1013F000430084F8440084F8450084F83D00002050
:1014000010BD000008B500680649884208D10648AA
:10141000016841F002010160006800F002000090E4
:1014200008BD0000000401404438024070B5044685
:1014300090F83C000025012817D0012684F83C6074
:10144000022084F83D002068826822F0770222F4AE
:101450007F4282600868502838D00DDC20284FD0A9
:1014600005DC90B3102811D14AE0022070BD30286D
:1014700046D040280AD13BE060282FD070280DD0FC
:10148000B0F5805F03D0B0F5005F12D0012584F87D
:101490003D60002084F83C00284670BDCB68D1E94F
:1014A0000121206800F045FE2068816841F0770145
:1014B00009E0CB68D1E90121206800F03AFE2068FC
:1014C000816841F480418160E1E719E0CA684968B8
:1014D000206800F003FF5021206806E0CA684968D0
:1014E000206800F00CFF6021206800F02CFECEE7A1
:1014F000CA684968206800F0F1FE40212068F4E7DE
:10150000226801461046F0E710B586B00446142163
:101510006846FEF720FF0E492068884216D10D4824
:101520000021026842F004020260006800F004003A
:1015300005904FF4707000900220CDE90101032066
:10154000CDE9031069460448FFF766FA06B010BDFE
:1015500000040140303802400008024070B50446E3
:1015600090F83C0000260D4601280FD0012084F899
:101570003C006AB1042A1DD0082A2FD00C2A3FD083
:101580000126002084F83C00304670BD022070BD6A
:10159000206800F0E1FD2068816941F00801816167
:1015A0002068816921F004018161206881692A69CC
:1015B000114311E0206800F0FFFD2068816941F4CB
:1015C000006181612068816921F480618161206806
:1015D00081692A6941EA02218161D2E7206800F02D
:1015E00021FE2068C16941F00801C1612068C1691C
:1015F00021F00401C1612068C1692A69114311E029
:10160000206800F043FE2068C16941F40061C161B7
:101610002068C16921F48061C1612068C1692A69BB
:1016200041EA0221C161ACE710B5040003D094F88F
:101630003D0010B107E0012010BD002084F83C00FF
:10164000204600F01EF8022084F83D00211D20688D
:1016500000F0FEFC012084F8460084F83E0084F887
:101660003F0084F8400084F8410084F8420084F888
:10167000430084F8440084F8450084F83D000020CD
:1016800010BD704710B50446022249B104290ED09E
:10169000082913D094F84100012816D0012010BD6C
:1016A00094F83E000128F9D184F83E200FE094F828
:1016B0003F000128F2D184F83F2008E094F8400070
:1016C0000128EBD184F8402001E084F84120012278
:1016D000206800F021FD16492068164A884201D092
:1016E000904203D1436C43F4004343642068884232
:1016F00013D0B0F1804F10D00F4988420DD00F4960
:1017000088420AD00E49884207D0904205D00D4940
:10171000884202D00C49884204D1816801F0070157
:10172000062903D0016841F001010160002010BDCD
:101730000000014000040140000400400008004097
:10174000000C004000400140001800407047704706
:10175000F8B5016804460868CA684B6910F00F0FB5
:101760004FF000055AD003F0010602F4907737439A
:1017700065D0C10705D0D10503D5216C41F0010129
:101780002164410705D5D90703D0216C41F002013E
:101790002164810705D5D90703D0216C41F00401EC
:1017A0002164010707D502F02001314303D0216CE9
:1017B00041F008012164216C00293BD0800604D54A
:1017C000900602D5204600F0E2FD20684069216CB9
:1017D000C0F3801001F00801014320462BD000F037
:1017E000AFFD20684069400621D52068143050E8DC
:1017F000001F21F0400140E80012002AF5D1A06B43
:10180000A8B16C490165A06BFFF7E1F8002811D081
:10181000A06B016D01B0BDE8F040084783060ED50E
:1018200093060CD52046BDE8F84000F0B0BD204638
:10183000FFF78DFFF8BDFFF78AFF2564F8BD266B23
:101840002023012E79D1C60677D5D60675D508682E
:10185000486800904869400640D5A16B0868406818
:101860000004000CEAD0A28D8242E7D9E085C86965
:10187000B0F5807F2DD020680C3050E8001F21F497
:10188000807140E80012002AF5D12068143050E839
:10189000001F21F0010140E80012002AF5D1206864
:1018A000143050E8001F21F0400140E80012002AE7
:1018B000F5D184F83E30256320680C3050E8001FD5
:1018C00021F0100140E80012002AF5D1A06BFFF7CB
:1018D00035F8A08DE18D401A81B229E0A08DE18D0F
:1018E000401A81B2E08D0028A8D00029A6D0206837
:1018F0000C3050E8002F22F4907240E80026002EB1
:10190000F5D12068143050E8002F22F0010240E8A1
:101910000026002EF5D184F83E30256320680C3077
:1019200050E8002F22F0100240E80023002BF5D1F0
:101930002046FFF70BFFF8BDFFE705062BD5150680
:1019400029D594F83D002128F5D1A068B0F5805F35
:1019500001D12069B0B1206A411C21622168007860
:101960004860E08C401E0004000CE084E3D1206855
:10197000C16821F08001C1602068C16841F0400168
:10198000C160D8E7206A0088C0F308004860206A78
:10199000801C2062E5E74006CDD55006CBD5CA684D
:1019A000204622F04002CA6084F83D3000F0A7F9DA
:1019B000C1E700003123000870B5040004D094F89A
:1019C0003D00002510B106E0012070BD84F83C50B8
:1019D000204600F023F8242084F83D002068C168E8
:1019E00021F40051C160204600F032FD20680169F9
:1019F00021F4904101612068416921F02A0141618F
:101A00002068C16841F40051C1602564202084F839
:101A10003D0084F83E00002070BD00002DE9F0413B
:101A200086B0044614216846FEF795FC354F2368BE
:101A3000002235490126022403253448BB422BD11C
:101A4000314B10331F6847F400271F601B6803F4F5
:101A5000002305930B6843F001030B600968082716
:101A600001F001010096CDE904710395CDE9014231
:101A700069468046FEF7D0FF0094CDE90146CDE9E6
:101A8000035769464046FEF7C7FF0022114634203F
:101A9000FFF732F9342030E01D4FBB422FD11A4BF3
:101AA00014331F6847F010071F601B6803F0100312
:101AB00005930B6843F001030B60096802AB01F06A
:101AC000010105914FF40071CDE90014072783E867
:101AD000A40069468046FEF79FFF4FF480608DE8C2
:101AE0005100CDE9035769464046FEF795FF0022B5
:101AF00011462520FFF700F92520FFF7EFF806B083
:101B0000BDE8F081004C0040303802400000024047
:101B10000010014090F83E30202B0ED159B152B147
:101B200090F83C30012B08D0012380F83C30002392
:101B3000036300F013BD01207047022070470000CE
:101B400030B4374A0168002301243648914243D11A
:101B5000027835496AB1012A10D0022A13D0521CEA
:101B6000D2B202704478A24231D1CA78012A0FD091
:101B70002CE00A78FE2A2AD1047028E04A78EF2A5D
:101B800024D1022202E08A784270032202701EE011
:101B90000A79264D02EB82044FF47A7202EB440478
:101BA0002C804C79224D04EB840402EB44042C80FD
:101BB0008C79204D04EB840402EB44042C80CC7916
:101BC00004EB840402EB44021B4C22800370007877
:101BD0000122014419481DE0194A91421DD1124ABF
:101BE0008178803229B1491CC9B28170192905D088
:101BF0000CE011780F2909D1847007E0114C002105
:101C0000555C6554491C1929FADB837080781118DA
:101C10000D48012230BCFFF77DBF30BC704700008B
:101C20000010014069000020B60000204C00002098
:101C30004E00002050000020520000208C020020A6
:101C4000004C00407C000020480200202DE9F843B1
:101C5000044690F83D001F4616460D4620284CD1FC
:101C6000C5B1BEB194F83C00012846D0012084F8EB
:101C70003C004FF00008C4F84080212084F83D006B
:101C8000FEF7CCFFA6848146E684A068B0F5805FAD
:101C900003D004E00120BDE8F883206928B12E4676
:101CA0005FF0000584F83C800EE00026FAE7802112
:101CB000204600F06EFCA0B9AEB116F8010B216809
:101CC0004860E08C401EE084E08C4B464FF0000200
:101CD00000970028EBD14FF04001204600F059FC5E
:101CE00030B10320D7E735F8020BC0F30800E6E770
:101CF000202084F83D000020CDE70220CBE770478C
:101D0000FEE700007FB5002415480094019402947A
:101D10001249039401604FF48031C0E90114046159
:101D2000047680F820400F49C0E90A140125C561F6
:101D3000C46080F830404561FEF7B3FC08B1FEF79F
:101D400005FC0C20CDE90005694602940448FEF725
:101D5000FFFB002801D0FEF7F9FB7FBD002001400A
:101D6000B80100200100000F30B587B0142168468B
:101D7000FEF7F1FA19480024016841F08001016082
:101D8000016801F080010591016841F004010160E2
:101D9000016801F004010591016841F00101016051
:101DA000016801F001010591016841F00201016043
:101DB00000680B4D00F0020005900022202128460B
:101DC000FEF727FF202000900120CDE9010469469D
:101DD00028460394FEF720FE07B030BD303802409D
:101DE0000004024010B596B000240F941094119492
:101DF000129413941C2168461494FEF7ACFA202127
:101E000007A8FEF7A8FA344832490160A721C0E9C3
:101E1000011440F6C311C0E9031444618461FFF763
:101E2000C3FA08B1FEF792FB4FF480500F900FA950
:101E30002948FFF7FBFA08B1FEF788FB2648FFF7B1
:101E4000F3FB08B1FEF782FB139413A92248149404
:101E5000FFF762FA08B1FEF779FB6020CDE90004D4
:101E60000294039404940594002269461A48069447
:101E7000FFF774FB08B1FEF769FB042269461648B8
:101E8000FFF76CFB08B1FEF761FB082269461248B8
:101E9000FFF764FB08B1FEF759FB0C2269460E48B8
:101EA000FFF75CFB08B1FEF751FB07940894099417
:101EB0004FF400500A94CDE90B4007A906480E9450
:101EC000FFF700FA08B1FEF741FB0348FFF71CFBE0
:101ED00016B010BD00040140000200200E4810B5ED
:101EE0000C4901600D4941604FF480518160490007
:101EF000C160C91001610C21416100218161C16192
:101F0000FFF75AFD002803D0BDE81040FEF71EBBC6
:101F100010BD0000004C004048020020A0860100D7
:101F20000C4810B50A4901604FF4E13141600021CD
:101F300081600C22C160C0E904128161C161FFF7B8
:101F40003BFD002803D0BDE81040FEF7FFBA10BDEE
:101F5000001001408C020020FEE7FEE7704770474A
:101F60000149052008707047000000202DE9F0416C
:101F70000C4C0025261F0FE0FEF750FE05EB450236
:101F800004EB82018B688F88C31ABB4203D388603D
:101F900054F8220080476D1C30788542ECDBBDE8A8
:101FA000F081000004000020FEF73EBE30B593B083
:101FB00030216846FEF7CFF914210CA8FEF7CBF9C3
:101FC0001D480025016841F080510160006800F063
:101FD000805011901948016841F480410160006807
:101FE000022400F480401190012000900004019030
:101FF0008001CDE9064008AA0420A82182E8130048
:102000000B906846FEF794FF08B172B6FEE70CA984
:102010000F2081E831004FF4A0500F904FF4805012
:10202000109005210CA8FEF799FE002801D072B689
:10203000FEE713B030BD00004038024000700040A1
:102040000248016841F470010160704788ED00E0CA
:10205000F0B50268254C264D264E274F274B4FF0F2
:10206000804CA04209D0604507D0A84205D0B042BC
:1020700003D0B84201D0984204D122F0700E4A68D1
:1020800042EA0E02A0421BD0604519D0A84217D0E8
:10209000B04215D0B84213D0984211D0184DA84282
:1020A0000ED0184DA8420BD0174DA84208D0174D9E
:1020B000A84205D0164DA84202D0164DA84203D121
:1020C00022F44075CA682A434D6922F080022A43EF
:1020D00002608A68C2620A688262A04201D09842A5
:1020E00001D10969016301214161F0BD0000014096
:1020F0000004004000080040000C004000040140C3
:1021000000400140004401400048014000180040E8
:10211000001C00400020004010B501F01F03012109
:10212000046A99408C430462016A9A401143016237
:1021300010BD10B5846842EA032224F47F440A43A8
:102140002243826010BD826822F070020A4342F08E
:102150000701816070470000F0B5026A22F00102B9
:102160000262036A42688469124E24F073050C68A7
:102170002C4323F002058B682B430D4DA84201D060
:10218000B04205D123F00807CB683B4323F004039A
:10219000A84201D0B04205D14D6922F440721543E6
:1021A0008A692A4342608461496841630362F0BDE1
:1021B0000000014000040140F0B5026A22F0100264
:1021C0000262026A436884690D6824F4E64444EAC2
:1021D00005248D6822F0200242EA05120F4D104EB0
:1021E000A84201D0B04206D1CF6822F0800242EA74
:1021F000071222F04002A84201D0B04207D14D6937
:1022000023F4406343EA85038D6943EA8503436011
:102210008461496881630262F0BD000000000140F2
:1022200000040140F0B5026A22F480720262026A80
:102230004368C46922F4007224F073050C68124EDE
:102240002C438D6842EA05220E4DA84201D0B042CF
:1022500006D1CF6822F4006242EA072222F48062AB
:10226000A84201D0B04207D14D6923F4405343EA5C
:1022700005138D6943EA05134360C4614968C1636E
:102280000262F0BD000001400004014030B5026A66
:1022900022F480520262046A4268C3690D6823F422
:1022A000E64343EA05238D6824F4005444EA0534E8
:1022B000084DA84202D0084DA84204D14D6922F42D
:1022C000804242EA85124260C36149680164046247
:1022D00030BD0000000001400004014010B5036A59
:1022E000046A24F001040462846924F0F00444EADE
:1022F000021423F00A020A438461026210BD10B581
:10230000036A23F0100303628369046A23F47043B1
:1023100043EA023224F0A00343EA01118261016220
:1023200010BD00000148FFF713BA0000480200206A
:1023300010B5806B0021C185C184FFF708FA10BD7C
:1023400001680C3151E8002F22F4907241E800231B
:10235000002BF5D10168143151E8002F22F0010261
:1023600041E80023002BF5D1016B012909D1016857
:102370000C3151E8002F22F0100241E80023002B1D
:10238000F5D1202180F83E1000210163704708B587
:1023900090F83E10222901D0022008BD82684FF437
:1023A00080539A4201D1016921B1816A9A421BD0BE
:1023B0004AB10AE00268816A5268C2F308020A80E0
:1023C000816A891C08E0026972B10268526802F0F1
:1023D0007F020A70816A491C8162C18D491E09040D
:1023E000090CC18503D019E002685268F1E7016861
:1023F000CA6822F02002CA600168CA6822F48072AA
:10240000CA6001684A6922F001024A61202180F80D
:102410003E10016B012903D0FFF792FB002008BD9D
:102420000021016301680C3151E8002F22F01002F5
:1024300041E80023002BF5D101680A68D20602D5D5
:102440000A6849680091818DFFF780F9E6E700008E
:1024500070B5044600680169E26821F440511143F7
:1024600001612169A068E269084361691143084379
:102470002168CA6849F20C639A430243CA60206823
:102480004169A26921F440711143416131492068D9
:10249000884202D03049884202D1FEF709FD01E0AE
:1024A000FEF7F6FCE2690023192164253226B2F515
:1024B000004F626828D0A0FB0101930F9200FDF746
:1024C000D3FE0146B0FBF5F06FF01802504301EB6C
:1024D000800006EB0010B0FBF5F000F0F002B1FB5D
:1024E000F5F002EB0012B1FBF5F06FF01803584362
:1024F00001EB800006EB0010B0FBF5F000F00F00E0
:1025000021681044886070BDA0FB010192185B41F6
:10251000FDF7AAFE0146B0FBF5F00201B1FBF5F0B4
:102520006FF01803584301EB800006EBC000B0FBCE
:10253000F5F000F0F80002EB4002B1FBF5F0584373
:1025400001EB800006EBC000B0FBF5F000F00700E7
:10255000D6E700000010014000140140816282852E
:10256000C28500210164222280F83E2080F83C10C0
:102570000168CA6842F48072CA6001684A6942F020
:1025800001024A610068C16841F02001C160002079
:1025900070472DE9F041984617460E460446069DC1
:1025A00027E0681C25D02DB1FEF738FBA0EB080012
:1025B000A8421ED920680C3050E8001F21F4D071C9
:1025C00040E80012002AF5D12068143050E8001FBE
:1025D00021F0010140E80012002AF5D1202084F802
:1025E0003D0084F83E00002084F83C000320BDE854
:1025F000F0812068006836EA000004D00020B8426C
:10260000CFD00020F3E70120F9E700000148FFF7F1
:102610009FB800008C020020FEE70907090E002881
:1026200004DB00F1E02080F80014704700F00F0098
:1026300000F1E02080F8141D7047000010B5074C31
:1026400020212046FEF7E0FA30B100222046BDE806
:1026500010402021FEF7DDBA0122F7E70004024016
:10266000FEF7EAFAFFF7A2FCFFF77EFBFFF758FC44
:10267000FFF748FBFFF732FCFFF7B4FB01220949E3
:102680000948FFF747FA0749012280310748FFF759
:1026900041FAFFF765FC00F00BF800BFFFF766FC9E
:1026A000FCE70000B60000208C0200204802002059
:1026B00070B500211748FEF7E5FF164C4FF4FA6697
:1026C0002068466304212046FEF7DCFF206886630D
:1026D00008212046FEF7D6FF2068C6630C2120465D
:1026E000FEF7D0FF206806643046FEF783F92068C5
:1026F00075104563206885632068C563206805649C
:102700003046FEF777F90448058045808580C5800E
:1027100070BD0000000200204C000020084907485E
:102720000B6802885A630B6842889A630B68828838
:10273000DA630968C0880864704700004C00002014
:10274000000200203C48B0F80110C1F30A0200F179
:102750001A010A808278D308C27843EA4213C3F38D
:102760000A034B800379920942EA8303427943EAE0
:102770008223C3F30A038B805308827943EAC2138E
:10278000C3F30A03CB801309C27943EA0213C3F3EC
:102790000A030B81037AD20942EA4303427A43EAED
:1027A0004223C3F30A034B819308827A43EA8213DC
:1027B000C3F30A038B81C37A520942EAC302CA8176
:1027C0008289C2F30A020A82427BD308827B43EAEF
:1027D0004213C3F30A034B82C37B920942EA830389
:1027E000027C43EA8223C3F30A038B825308427CB0
:1027F00043EAC213C3F30A03CB821309827C43EA80
:102800000213C3F30A030B83C37CD20942EA4303D6
:10281000027D43EA4223C3F30A034B839308427DBC
:1028200043EA8213C3F30A038B83807D520942EA91
:10283000C000C883704700007C0000202DE9F041F3
:1028400000206426184C19496FF00A0C034640F228
:10285000BB450C2734F81020A2F5C872624502DA95
:102860000A1813710AE0AA4202DD0A18167105E07F
:1028700092FBF7F201EB000E8EF80420401C1028AA
:10288000E8DB0B7500200B7D0A5C401C1A440A75BE
:102890001428F8DBBDE8F0414FF6FF731522034919
:1028A0000348FFF7D3B90000960000205400002031
:1028B0008C02002010B51D482DED028BFDF7A2FF04
:1028C00064211A48FDF748FF1848FDF7E7FE184C49
:1028D00060801648FEF714F8606800F075F941EC66
:1028E000180B608800F05FF89FED121B53EC112B62
:1028F00000F06CF89FED111B53EC112B00F066F803
:1029000053EC182B00F062F800F01CF800EE100AEF
:10291000F2EE040A84ED020A20EE200ABCEEC00AA0
:1029200010EE100A2070BDEC028B10BDB801002023
:10293000400000206666666666664A3F000000004A
:102940000000264021F00042A2F16052B2F5801F43
:1029500001F0004328BFD2F17F6C0BD95FEA001C65
:1029600043EAC20242EB507018BF704728BF20F004
:1029700001007047B2F5801FBCBF184670474FEA90
:10298000410C1CF5001F02D2084600F093B970B547
:1029900000F0C6F800000089FFF7F6BF4FF00040D6
:1029A000A0F580007047B0FA80F310FA03F10AD066
:1029B000C3F11D0303F580634FEA41504FEA035210
:1029C00002EBD12170474FF000007047DFF848C19B
:1029D00070B51CEA111E1EBF1CEA13159EEA0C0FEF
:1029E00095EA0C0F00F06F8081EA030423EA4C1390
:1029F0004EEAD47E21EA4C1141F4801143F4801355
:102A0000AE44A1FB024CA0FB0365AEF17F7E3619FC
:102A100055EB0C05A1FB034C4CF10003A0FB021C81
:102A200016EB0C06654153F10003094218BF46F04E
:102A3000010613F4007F0BD14FEA03314FEA053052
:102A4000340341EA155140EA16506FF003020AE0E0
:102A50004FEAC3214FEAC520F40241EA555140EA4A
:102A600056506FF0020202EB2E4201EB025585EA4E
:102A7000CE710AD05FEA440C18BF24F0004450F134
:102A8000000041F1000120EAD47040F2FE7C624572
:102A900000D270BDA84214BF4FF080444FF04044B4
:102AA000002E08BF0024BEF1806FA8BFA1F1C04175
:102AB000BDE8704080F282804FF0000001F1C0411B
:102AC00001F0004170479EEA0C0F0CEA131518BF85
:102AD00095EA0C0F06D04FF0000081EA030E0EF0CD
:102AE000004170BD00F01CF88900013E00F007B8FD
:102AF00000F009B84FEA430C5FEA5C5C08D081EA59
:102B0000030100F05BB84FEA410C5FEA5C5CF6D170
:102B10004FF00000014970470000FF070000F87FF8
:102B20000EF1020E2EF0030E5EF8046B364205D451
:102B3000012A43EB030515F5001F12D8012841EBCC
:102B4000010C1CF5001F0CD80ED14FEAD17C15F5F5
:102B5000001F0CEB4C0C0CF1020C08BF4CEBD37CAF
:102B600004E04FF0080C01E04FEAD37C0CEB4C057D
:102B700026FA05F606F00706B6F1040C06D20EEBAF
:102B8000860CBDE870404CF0010C6047DFE80CF0AB
:102B9000090B02024FF000414FF00000A1F50021A7
:102BA00070BD19461046012851EB010418BFD4F539
:102BB000001484BF002001F0004170BD0808A0F59A
:102BC00000114FEA3101704743004FEAD30C4FEA3E
:102BD0003C0C43401FBF40070CF1605113F0FE4F07
:102BE00070471CF0006F03D100200CF000417047CB
:102BF0000CF0004343EA507010B540EACC0000F0FE
:102C00000EF800BF000000924FEA0001FFF7D6BFA8
:102C10004FF000414FF00000A1F5002170470EF188
:102C2000020E2EF0030E5EF8044B244204D44FEA49
:102C30004102B2F17F4F11D84FEA4003B3F17F4F09
:102C40000CD80ED14FEAD07CB2F17F4F0CEB4C0C7C
:102C50000CF1020C08BF4CEBD17C04E04FF0080CE7
:102C600001E04FEAD17C0CEB4C0324FA03F404F0AE
:102C70000704B4F1040C06D20EEB840CBDE810403E
:102C80004CF0010C6047DFE80CF0070802024FF03F
:102C90000040A0F5800010BD0846420018BFD2F1E8
:102CA000807288BF00F0004010BD4FF04070E1EE30
:102CB000100A7047FF2141EAD050C005704700005C
:102CC00000000000000001020304060708090000DC
:102CD0000000010203040000F82C0008000000209E
:102CE0007C000000C4010008742D00087C00002056
:102CF000B4080000E0010008000000001D270008E3
:102D00000100000000000000452700080A00000044
:102D1000000000003D2800086400000000000000E2
:102D20003D260008F401000000000000B52800085E
:102D3000C800000000000000000000003333833FA3
:102D4000000000000000000000000000FEEF158100
:102D50000000000000000000000000000000000073
:102D60000000000001000000100000000000000052
:042D70000024F40047
:040000050800018965
:00000001FF
