:020000040800F2
:100000002807002029020008C3170008A5160008C9
:10001000C117000849050008691B0008000000001E
:10002000000000000000000000000000C7170008EA
:100030004B05000800000000C51700081118000853
:10004000430200084302000843020008430200087C
:10005000430200084302000843020008430200086C
:10006000430200084302000843020008430200085C
:10007000430200084302000843020008430200084C
:10008000430200084302000843020008430200083C
:10009000430200084302000843020008430200082C
:1000A000430200084302000843020008430200081C
:1000B000430200084302000843020008430200080C
:1000C00043020008430200084302000843020008FC
:1000D000430200085D1B00084302000843020008B9
:1000E00043020008430200084302000843020008DC
:1000F00043020008430200084302000843020008CC
:1001000043020008430200084302000843020008BB
:1001100043020008430200084302000843020008AB
:10012000430200084302000843020008430200089B
:100130004302000800000000000000004302000825
:10014000430200084302000843020008430200087B
:10015000430200084302000843020008430200086B
:10016000430200084302000843020008430200085B
:1001700043020008430200080000000000000000E5
:10018000430200084302000800F002F800F03CF8C7
:100190000AA090E8000C82448344AAF10107DA45E2
:1001A00001D100F031F8AFF2090EBAE80F0013F0F8
:1001B000010F18BFFB1A43F0010318474C1E000043
:1001C0006C1E0000103A24BF78C878C1FAD85207D4
:1001D00024BF30C830C144BF04680C6070470000C1
:1001E0000023002400250026103A28BF78C1FBD840
:1001F000520728BF30C148BF0B6070471FB501F0E0
:10020000ECFE1FBD10B510BD00F0CFF81146FFF792
:10021000F5FF01F0CDFC00F0EDF803B4FFF7F2FFBD
:1002200003BC00F0F5F80000094880470948004782
:10023000FEE7FEE7FEE7FEE7FEE7FEE7FEE7FEE796
:10024000FEE7FEE704480549054A064B70470000F3
:10025000A9180008890100082801002028070020AB
:10026000280300202803002053EA020C00F06980D4
:100270002DE9F04B4FF00006002B1FBFB3FA83F5BA
:1002800003FA05F424FA05F65E4012BF1643B2FAEB
:1002900082F502FA05F4C5F120051EBF22FA05FC1D
:1002A00044EA0C04203556EA044C4FEA144418BFC3
:1002B000641C4FF000084FF00009904271EB030CF2
:1002C00039D3002919BFB1FA81F701FA07F6B0FA5C
:1002D00080F700FA07F6C7F120071EBF20FA07FCD7
:1002E00046EA0C062037B6FBF4FCA7EB0507103FE7
:1002F00007F01F0BCBF120060CFA0BFB2CFA06F6CD
:1003000044BFB3460026202FA4BF5E464FF0000B2B
:100310005BEA060C08BF4FF0010B19EB0B09ABFBB6
:10032000027C48EB0608C01B06FB02CC0BFB03CC8F
:1003300071EB0C01C1E70B46024641464846BDE859
:10034000F08B13B54FF000004FF00001AFF30080C9
:10035000BDE81C4070474FF0000200B513469446BC
:100360009646203922BFA0E80C50A0E80C50B1F10D
:100370002001BFF4F7AF090728BFA0E80C5048BF21
:100380000CC05DF804EB890028BF40F8042B08BFBF
:10039000704748BF20F8022B11F0804F18BF00F8BB
:1003A000012B7047704770477047754600F02CF876
:1003B000AE4605006946534620F00700854618B052
:1003C00020B5FFF73FFFBDE820404FF000064FF09B
:1003D00000074FF000084FF0000B21F00701AC467A
:1003E000ACE8C009ACE8C009ACE8C009ACE8C00999
:1003F0008D46704710B50446AFF300802046BDE837
:100400001040FFF70ABF000000487047C4000020FA
:1004100001491820ABBEFEE726000200704700002D
:10042000464910B54A6822F440324A604A68436837
:100430001A434A6001684A6822F480724A6001687F
:100440004A68036942EA03224A6001684A6822F066
:1004500040724A6001684A6883681A434A600168CA
:100460008A6822F400628A6001688A68C3681A4355
:100470008A60816A6FF07062D14201688A6822F0F6
:1004800070628A6001688A680CD0836A1A438A6045
:1004900001688A6822F040528A6001688A68C36AEB
:1004A0001A4301E022F040528A6001688A6822F013
:1004B00002028A6001688A68037E42EA43028A6017
:1004C00090F82010002901684A680FD042F40062B9
:1004D0004A6001684A6822F460424A6001684A68DA
:1004E000174C436A04EB43331A4301E022F40062E1
:1004F0004A600168CA6A22F47002CA620168CA6A64
:10050000838B104C04EB03531A43CA6201688A6858
:1005100022F400728A6001688A6890F8303042EAFA
:1005200043228A6001688A6822F480628A600168D6
:100530008A68406942EA8020886010BD002301403B
:1005400000E0FFFF0000F0FFFEE7704772B6FEE735
:1005500078B50024009490F83C20012A19D001229B
:1005600080F83C200A6807230568092A13D9EE6839
:100570000A3A02EB420293409E43EE600B788A688F
:100580000A3B03EB43039A400368DD682A43DA60C1
:1005900010E0022078BD2E6902EB420293409E4398
:1005A0002E610B788A6803EB43039A4003681D6948
:1005B0002A431A614A681F23072A13D205686E6B03
:1005C000521E02EB820293409E436E630B790A88AF
:1005D0005B1E92B203EB83039A4003685D6B2A4370
:1005E0005A6327E005680D2A12D22E6BD21F02EB48
:1005F000820293409E432E630B790A88DB1F92B2DE
:1006000003EB83039A4003681D6B2A431A6311E0CE
:10061000EE6A0D3A02EB820293409E43EE620B7942
:100620000A880D3B92B203EB83039A400368DD6AAC
:100630002A43DA62164B0568144A9D4206D10D68BA
:10064000122D03D1556845F48005556005689D421B
:1006500018D10B68102B01D0112B13D1536843F420
:1006600000035360096810290CD10A490A4A096835
:10067000B1FBF2F101EB8101490000E0491E00915C
:100680000029FBD180F83C40002078BD00230140C8
:10069000002001403400002040420F000068C06C80
:1006A000704770B504004FF0000503D0206C0026A1
:1006B00010B107E0012070BD204600F01DF866640F
:1006C00084F83C60206CC00610D4206C20F4885064
:1006D00040F0020020642046FFF7A2FE6664206C12
:1006E00020F0020040F00100206400E0012584F8C1
:1006F0003C60284670BD000010B586B00446142149
:100700006846FFF728FE1149206888421CD110482E
:100710000021026842F480720260006800F4807078
:1007200005900B481438026842F004020260006829
:1007300000F004000590042000900320CDE90101A1
:100740006946044800F056F906B010BD002001408B
:1007500044380240000802402DE9F0410446006898
:100760000D4681684FF0000749050BD58068C0052C
:1007700008D5206C40F02000206484F83C700120F3
:10078000BDE8F08100F038FA064613E0681C11D08D
:1007900025B100F031FA801BA8420BD9206800680F
:1007A000800707D4206C40F00400206484F83C707B
:1007B0000320E5E7206800688007E7D521686FF02F
:1007C00012000860206C40F400702064206881688A
:1007D00011F0405F13D1217E89B9C16A11F4700F05
:1007E00002D0806840050AD4206C20F48070206418
:1007F000206CC00403D4206C40F001002064002071
:10080000BEE7000018B50021009190F83C20012AB5
:1008100007D0012280F83C2002689368DB0702D0F1
:1008200011E0022018BD936843F0010393602E4A43
:100830002E4B1268B2FBF3F202EB420200E0521EB2
:100840000092002AFBD102689368DB0742D0036C58
:1008500040F20164A34343F48073036453685B056F
:1008600005D5036C23F4005343F480530364036CF5
:10087000DB0404D5436C23F00603436400E04164C9
:1008800080F83C101A496FF0220313604968006831
:10089000CA06184906D0884224D1816811F0405F09
:1008A00013D01FE08842F8D0134A904203D1D1F808
:1008B0000423D206F1D0114A904213D1D1F8041387
:1008C00001F01F011029E8D30CE0816841F080415C
:1008D000816007E0016C41F010010164416C41F05E
:1008E00001014164002018BD3400002040420F0087
:1008F000002301400020014000210140002201406E
:1009000090F83C1001290CD0012180F83C100168BE
:100910008A6822F001028A6001688968C90702D0EA
:1009200007E002207047016C21F4885141F0010179
:100930000164002180F83C10084670472DE9F04121
:100940000446876D00F058F9064694F835000025F6
:10095000022806D08020606584F834500120BDE86C
:10096000F0812068016821F016010160206841696A
:1009700021F080014161206C08B9A06C20B1206891
:10098000016821F0080101602068016821F001017F
:1009900001600CE000F030F9801B052807D9202009
:1009A0006065032084F8350084F83450D7E7206868
:1009B0000068C007EED194F85C103F208840B86012
:1009C000012084F8350084F834500020C7E790F8FF
:1009D0003510022903D0802141650120704705218F
:1009E00080F835100068016821F0010101600020E5
:1009F000704700002DE9F84FDFF8BCA10022012567
:100A00000AF1040B03264FF00F090BF1040E00BF8F
:100A10000B6805FA02F42340A34270D10F7907F066
:100A20000307012F01D0022F16D187684FEA420831
:100A300006FA08FC27EA0C07D1F80CC00CFA08FCEF
:100A40004CEA070CC0F808C04768A7430C79C4F308
:100A5000001494403C4344600C79E443A4070AD05A
:100A6000C4684FEA420C06FA0CF7BC438F6807FAD9
:100A70000CF72743C7600C7904F00304022C12D151
:100A8000D40800EB840CDCF820405707FF0E09FA6D
:100A900007F824EA0804D1F8108008FA07F848EAB1
:100AA0000408CCF8208004684FEA420C06FA0CF7E0
:100AB000BC430F7907F0030707FA0CF727430760D9
:100AC0004C6814F4403F70D03C4C276847F4804792
:100AD0002760246822F0030704F480440094384C13
:100AE00007EB040CDCF8084897074FEA177809FA77
:100AF00008F7BC43334FB84202D1002724E054E04A
:100B0000314FB84201D101271EE0304FB84201D128
:100B1000022719E02E4FB84201D1032714E02D4FD0
:100B2000B84201D104270FE02B4FB84201D105276D
:100B30000AE02A4FB84201D1062705E0284FB84203
:100B400001D1072700E0082707FA08F72743CCF868
:100B50000878DAF800405746D1F804C09C435FEAB1
:100B6000CC3C00D51C433C60DBF800405F46D1F82C
:100B700004C09C435FEA8C3C00D51C433C60DEF81B
:100B800000407746D1F804C09C435FEACC2C00D5E6
:100B90001C433C60084F0C373C68D1F804C09C43B0
:100BA0005FEA8C2C00D51C433C60521C102AFFF4D9
:100BB0002FAFBDE8F88F0000003C014044380240F0
:100BC00000300140000002400004024000080240E2
:100BD000000C0240001002400014024000180240C5
:100BE000001C02400069084000D0012070470AB193
:100BF000816170470904FBE7014880687047000085
:100C00002800002002488168027811448160704702
:100C1000280000200B4810B5016841F40071016004
:100C2000016841F480610160016841F480710160F4
:100C3000032000F06FF80F2000F006F800F024F811
:100C4000002010BD003C024070B50D4D04464FF42D
:100C50007A712878B1FBF0F00A490968B1FBF0F02D
:100C600000F00AFB48B9102C07D200222146501E82
:100C700000F030F800206C6070BD012070BD0000F5
:100C800028000020340000200A4808B5016841F41B
:100C900080410160006800F4804000900548001F1A
:100CA000016841F080510160006800F080500090C0
:100CB00008BD000044380240002809DB00F01F0294
:100CC000012191404009800000F1E020C0F80011AE
:100CD00070470000F0B40E4B1B680C46C3F30223B0
:100CE000C3F10705042D00D90425191D072901D2D8
:100CF000002300E0DB1E012606FA05F1491E214013
:100D000099409E40761E16403143F0BC00F02DBF46
:100D10000CED00E0064900F0070208684FF6FF03FB
:100D2000184040EA0220034A104308607047000060
:100D30000CED00E00000FA052DE9F0470E46050035
:100D400065D0DFF81481D8F80000F7B200F0070092
:100D5000B04207D288F80070D8F8000000F0070011
:100D6000B04254D128683D4C810712D5400703D5C5
:100D7000206840F4E05020602878000703D5206800
:100D800040F4604020602068A96820F0F00008432B
:100D900020602878C0072DD03049686808390128BC
:100DA00012D0022813D0032811D00968890700291E
:100DB0002DDA216821F0030101432160FFF71CFFB8
:100DC000814641F2883A0EE009688903EFE7096835
:100DD0008901ECE7FFF710FFA0EB0901514502D9AB
:100DE0000320BDE8F0872068696800F00C00B0EBD4
:100DF000810FEFD1D8F80010404601F00701B14251
:100E000007D90770006800F00700B04201D0012048
:100E1000E7E72878400705D52068E96820F4E05026
:100E2000084320602878000706D52068296920F447
:100E3000604040EAC100206000F038F82168084AAC
:100E4000C1F30311515CC8400649086006480068B8
:100E5000FFF7FAFE0020C4E7003C024008380240D9
:100E6000EE1F0008340000202C0000200448054933
:100E700000680968044AC1F38221515CC840704788
:100E80003400002008380240FE1F000804480549CD
:100E900000680968044AC1F34231515CC840704798
:100EA0003400002008380240FE1F0008154810B525
:100EB000006810F00C02144813D04110042A0FD01F
:100EC000082A0ED10F4C241F2268236802F03F022B
:100ED0005B0207D52068C0F38810A0FB010106E083
:100EE000084610BD2168C1F38811A1FB0001002351
:100EF000FFF7BAF92168C1F30141491C4900B0FB71
:100F0000F1F010BD083802400024F4002DE9F84F3C
:100F100004006ED02078DFF84C93C007A9F10405D7
:100F20004AD009F104000168C1F38101012908D008
:100F30000068C0F3810002280AD1D9F800004002FD
:100F400006D52868800337D560680028E1D033E0F3
:100F50006068B0F5803F10D0B0F5A02F286810D0A1
:100F600020F480302860286820F4802028606068A1
:100F7000A8B1FFF741FE06460DE0286840F4803036
:100F8000F4E740F480202860F7E700BFFFF734FE65
:100F9000801B642873D828688003F7D50CE0FFF71E
:100FA0002BFE064605E000BFFFF726FE801B6428E7
:100FB000F0D828688003F7D42078DFF8AC82800767
:100FC0004FF0000A3ED5A748001D016811F00C0F34
:100FD00008D00068C0F3810002280BD1D9F80000C6
:100FE000400207D42868800716D5E068012800D1A0
:100FF00012E033E1E068B8B10120C8F80000FFF763
:10100000FBFD064605E000BFFFF7F6FD801B02284A
:10101000C0D828688007F7D52868216920F0F80033
:1010200040EAC10028600DE0C8F800A0FFF7E4FD29
:10103000064604E0FFF7E0FD801B02281FD8286861
:101040008007F7D42078000722D5864F874861694A
:10105000703771B101210160FFF7CEFD064604E053
:10106000FFF7CAFD801B022809D838688007F7D52A
:101070000EE0C0F800A0FFF7BFFD064605E082E0E5
:10108000FFF7BAFD801B02287DD838688007F7D4A7
:101090002078400768D5DFF8CCB100270BF13C0B76
:1010A000DBF80000C0000BD4DBF8001041F08051E9
:1010B000CBF80010DBF80000012700F08050009012
:1010C0006B4E3068C00510D4306840F480703060DA
:1010D000FFF792FD009005E0FFF78EFD0099401AA2
:1010E000022850D83068C005F6D55E4EA0686C3630
:1010F00001280FD00528306810D020F001003060A2
:10110000306820F004003060A068B8B1FFF774FDCB
:1011100000900FE0306840F00100F4E740F0040078
:101120003060F7E7FFF768FD0099411A41F2883017
:10113000814266D830688007F4D50EE0FFF75CFD89
:10114000009007E0FFF758FD0099411A41F28830FE
:10115000814256D830688007F4D42FB1DBF80010F4
:1011600021F08051CBF80010A069C8B33D49091D9A
:101170000968C1F3810102294AD00228504607D0EC
:10118000C8F8600000E03CE0FFF736FD04463BE0B5
:101190004746C8F86000FFF72FFD064605E000BF90
:1011A000FFF72AFD801B02282BD828688001F7D47E
:1011B000D4E907010843A16A2E4A490802EB01411C
:1011C000626A41EA8211084394F82C1040EA0161F6
:1011D000C9F8001001203866FFF70EFD044606E04E
:1011E0003EE000BFFFF708FD001B022809D8286871
:1011F0008001F7D534E000BFFFF7FEFC001B02289A
:1012000002D90320BDE8F88F28688001F4D427E0D4
:101210000128F7D0D9F80000E26900F4800191427A
:101220001CD1226A00F03F01914217D147F6C071EC
:10123000626A0140B1EB821F10D1A26A4FF0FF3306
:1012400000F4403103EB5202B1EB024F06D194F8A7
:101250002C1000F07060B0EB016F01D00120D1E7DD
:101260000020CFE70438024000004742800E47428A
:10127000007000400000FFFF10B5401EB0F1807FFD
:1012800001D3012010BD4FF0E02460610F216017F1
:1012900000F06BFC0020A06107202061002010BD41
:1012A00070477047F8B5016804460868CA684B691A
:1012B00010F00F0F4FF000055AD003F0010602F4B2
:1012C0009077374365D0C10705D0D10503D5216C90
:1012D00041F001012164410705D5D90703D0216CF4
:1012E00041F002012164810705D5D90703D0216CA3
:1012F00041F004012164010707D502F020013143C8
:1013000003D0216C41F008012164216C00293BD0FD
:10131000800604D5900602D5204600F0FCFA20682D
:101320004069216CC0F3801001F0080101432046A0
:101330002BD000F0C9FA20684069400621D520680A
:10134000143050E8001F21F0400140E80012002A4C
:10135000F5D1A06BA8B16C490165A06BFFF737FB15
:10136000002811D0A06B016D01B0BDE8F040084726
:1013700083060ED593060CD52046BDE8F84000F054
:10138000CABA2046FFF78DFFF8BDFFF78AFF256434
:10139000F8BD266B2023012E79D1C60677D5D60657
:1013A00075D50868486800904869400640D5A16B2B
:1013B000086840680004000CEAD0A28D8242E7D998
:1013C000E085C869B0F5807F2DD020680C3050E8EA
:1013D000001F21F4807140E80012002AF5D1206836
:1013E000143050E8001F21F0010140E80012002AEB
:1013F000F5D12068143050E8001F21F0400140E88A
:101400000012002AF5D184F83E30256320680C30A4
:1014100050E8001F21F0100140E80012002AF5D129
:10142000A06BFFF78BFAA08DE18D401A81B229E005
:10143000A08DE18D401A81B2E08D0028A8D000294E
:10144000A6D020680C3050E8002F22F4907240E8BB
:101450000026002EF5D12068143050E8002F22F02D
:10146000010240E80026002EF5D184F83E302563C5
:1014700020680C3050E8002F22F0100240E80023D2
:10148000002BF5D12046FFF70BFFF8BDFFE705065F
:101490002BD5150629D594F83D002128F5D1A06853
:1014A000B0F5805F01D12069B0B1206A411C216292
:1014B000216800784860E08C401E0004000CE08445
:1014C000E3D12068C16821F08001C1602068C16853
:1014D00041F04001C160D8E7206A0088C0F30800ED
:1014E0004860206A801C2062E5E74006CDD55006A2
:1014F000CBD5CA68204622F04002CA6084F83D304D
:1015000000F0CFF8C1E70000B918000870B504007A
:1015100004D094F83D00002510B106E0012070BD14
:1015200084F83C50204600F023F8242084F83D0045
:101530002068C16821F40051C160204600F04CFAD7
:101540002068016921F4904101612068416921F01E
:101550002A0141612068C16841F40051C1602564DD
:10156000202084F83D0084F83E00002070BD00007B
:1015700010B586B0044614216846FEF7ECFE184903
:101580002068884229D117480021026842F01002E1
:101590000260006800F010000590124814380268DC
:1015A00042F001020260006800F0010005904FF473
:1015B000C06000900220CDE90101032003900720C4
:1015C000049069460848FFF715FA002211462520C5
:1015D000FFF780FB2520FFF76FFB06B010BD000072
:1015E00000100140443802400000024070470000F3
:1015F0002DE9F843044690F83D001F4616460D4677
:1016000020284CD1C5B1BEB194F83C00012846D089
:10161000012084F83C004FF00008C4F840802120ED
:1016200084F83D00FFF7E8FAA6848146E684A068C6
:10163000B0F5805F03D004E00120BDE8F8832069A5
:1016400028B12E465FF0000584F83C800EE00026AD
:10165000FAE78021204600F045FAA0B9AEB116F8AD
:10166000010B21684860E08C401EE084E08C4B4612
:101670004FF0000200970028EBD14FF040012046C8
:1016800000F030FA30B10320D7E735F8020BC0F391
:101690000800E6E7202084F83D000020CDE7022086
:1016A000CBE77047FEE700007FB5002415480094A3
:1016B000019402941249039401604FF48031C0E90F
:1016C00001140461047680F820400F49C0E90A142F
:1016D0000125C561C46080F830404561FEF7E1FF37
:1016E00008B1FEF733FF0C20CDE9000569460294EE
:1016F0000448FEF72DFF002801D0FEF727FF7FBD2D
:1017000000200140380000200100000F30B587B0F4
:1017100014216846FEF71FFE19480024016841F0B5
:1017200080010160016801F080010591016841F0CC
:1017300004010160016801F004010591016841F0B4
:1017400001010160016801F001010591016841F0AA
:101750000201016000680B4D00F0020005900022BC
:1017600020212846FFF743FA202000900120CDE9F0
:101770000104694628460394FFF73CF907B030BDE1
:1017800030380240000402400C4810B50A4901609C
:101790004FF4E1314160002181600C22C160C0E959
:1017A00004128161C161FFF7B1FE002803D0BDE8DA
:1017B0001040FEF7CBBE10BD00100140800000209D
:1017C000FEE7FEE770477047014902200870704746
:1017D000000000202DE9F0410C4C0025261F0FE0F1
:1017E000FFF70AFA05EB450204EB82018B688F884C
:1017F000C31ABB4203D3886054F8220080476D1C93
:1018000030788542ECDBBDE8F08100000400002068
:10181000FFF7F8B930B593B030216846FEF79BFD6D
:1018200014210CA8FEF797FD1D480025016841F022
:1018300080510160006800F08050119019480168E3
:1018400041F4804101600068022400F4804011905E
:1018500001200090000401908001CDE9064008AA13
:101860000420A82182E813000B906846FFF74EFB86
:1018700008B172B6FEE70CA90F2081E831004FF4E1
:10188000A0500F904FF48050109005210CA8FFF746
:1018900053FA002801D072B6FEE713B030BD000045
:1018A00040380240007000400248016841F4700175
:1018B0000160704788ED00E010B5806B0021C185A4
:1018C000C184FFF7EEFC10BD01680C3151E8002F18
:1018D00022F4907241E80023002BF5D10168143105
:1018E00051E8002F22F0010241E80023002BF5D13E
:1018F000016B012909D101680C3151E8002F22F058
:10190000100241E80023002BF5D1202180F83E1081
:1019100000210163704708B590F83E10222901D0DC
:10192000022008BD82684FF480539A4201D10169B8
:1019300021B1816A9A421BD04AB10AE00268816AE9
:101940005268C2F308020A80816A891C08E00269B1
:1019500072B10268526802F07F020A70816A491C03
:101960008162C18D491E0904090CC18503D019E0AB
:1019700002685268F1E70168CA6822F02002CA6072
:101980000168CA6822F48072CA6001684A6922F05C
:1019900001024A61202180F83E10016B012903D029
:1019A000FFF724FE002008BD0021016301680C310F
:1019B00051E8002F22F0100241E80023002BF5D15E
:1019C00001680A68D20602D50A6849680091818DCB
:1019D000FFF766FCE6E7000070B5044600680169A1
:1019E000E26821F44051114301612169A068E26974
:1019F00008436169114308432168CA6849F20C63CE
:101A00009A430243CA6020684169A26921F4407187
:101A10001143416131492068884202D030498842EF
:101A200002D1FFF733FA01E0FFF720FAE269002361
:101A3000192164253226B2F5004F626828D0A0FB38
:101A40000101930F9200FEF70FFC0146B0FBF5F089
:101A50006FF01802504301EB800006EB0010B0FB62
:101A6000F5F000F0F002B1FBF5F002EB0012B1FB73
:101A7000F5F06FF01803584301EB800006EB0010FF
:101A8000B0FBF5F000F00F0021681044886070BDD5
:101A9000A0FB010192185B41FEF7E6FB0146B0FB9B
:101AA000F5F00201B1FBF5F06FF01803584301EBBC
:101AB000800006EBC000B0FBF5F000F0F80002EB90
:101AC0004002B1FBF5F0584301EB800006EBC0008B
:101AD000B0FBF5F000F00700D6E700000010014071
:101AE000001401402DE9F041984617460E46044681
:101AF000069D27E0681C25D02DB1FFF77DF8A0EBEF
:101B00000800A8421ED920680C3050E8001F21F4BC
:101B1000D07140E80012002AF5D12068143050E856
:101B2000001F21F0010140E80012002AF5D1202019
:101B300084F83D0084F83E00002084F83C00032037
:101B4000BDE8F0812068006836EA000004D000207B
:101B5000B842CFD00020F3E70120F9E70148FFF7B2
:101B6000A1BB000080000020FEE70907090E002845
:101B700004DB00F1E02080F80014704700F00F0053
:101B800000F1E02080F8141D7047000010B5074CEC
:101B900020212046FFF726F830B100222046BDE87C
:101BA00010402021FFF723B80122F7E7000402408C
:101BB000FFF730F8FFF72EFEFFF7A8FDFFF7E4FD73
:101BC000FFF772FDFFF700FEFFF704FEFCE70000E1
:101BD00010B521482DED028BFEF714FE64211E483E
:101BE000FEF7BAFD1C48FEF759FD1C4C60801A48F0
:101BF000FEF786FE606800F07FF941EC180B608804
:101C000000F069F89FED161B53EC112B00F076F8ED
:101C10009FED151B53EC112B00F070F853EC182BB3
:101C200000F06CF800F026F800EE100AF2EE040A5C
:101C300084ED020A20EE200A21464FF6FF730122AE
:101C4000BCEEC00A10EE100A20700948BDEC028BF1
:101C5000BDE81040FFF7CCBC380000201C0000207D
:101C60006666666666664A3F000000000000264021
:101C70008000002021F00042A2F16052B2F5801FE6
:101C800001F0004328BFD2F17F6C0BD95FEA001C42
:101C900043EAC20242EB507018BF704728BF20F0E1
:101CA00001007047B2F5801FBCBF184670474FEA6D
:101CB000410C1CF5001F02D2084600F093B970B524
:101CC00000F0C6F800000089FFF7F6BF4FF00040B3
:101CD000A0F580007047B0FA80F310FA03F10AD043
:101CE000C3F11D0303F580634FEA41504FEA0352ED
:101CF00002EBD12170474FF000007047DFF848C178
:101D000070B51CEA111E1EBF1CEA13159EEA0C0FCB
:101D100095EA0C0F00F06F8081EA030423EA4C136C
:101D20004EEAD47E21EA4C1141F4801143F4801331
:101D3000AE44A1FB024CA0FB0365AEF17F7E3619D9
:101D400055EB0C05A1FB034C4CF10003A0FB021C5E
:101D500016EB0C06654153F10003094218BF46F02B
:101D6000010613F4007F0BD14FEA03314FEA05302F
:101D7000340341EA155140EA16506FF003020AE0BD
:101D80004FEAC3214FEAC520F40241EA555140EA27
:101D900056506FF0020202EB2E4201EB025585EA2B
:101DA000CE710AD05FEA440C18BF24F0004450F111
:101DB000000041F1000120EAD47040F2FE7C62454F
:101DC00000D270BDA84214BF4FF080444FF0404491
:101DD000002E08BF0024BEF1806FA8BFA1F1C04152
:101DE000BDE8704080F282804FF0000001F1C041F8
:101DF00001F0004170479EEA0C0F0CEA131518BF62
:101E000095EA0C0F06D04FF0000081EA030E0EF0A9
:101E1000004170BD00F01CF88900013E00F007B8D9
:101E200000F009B84FEA430C5FEA5C5C08D081EA35
:101E3000030100F05BB84FEA410C5FEA5C5CF6D14D
:101E40004FF00000014970470000FF070000F87FD5
:101E50000EF1020E2EF0030E5EF8046B364205D42E
:101E6000012A43EB030515F5001F12D8012841EBA9
:101E7000010C1CF5001F0CD80ED14FEAD17C15F5D2
:101E8000001F0CEB4C0C0CF1020C08BF4CEBD37C8C
:101E900004E04FF0080C01E04FEAD37C0CEB4C055A
:101EA00026FA05F606F00706B6F1040C06D20EEB8C
:101EB000860CBDE870404CF0010C6047DFE80CF088
:101EC000090B02024FF000414FF00000A1F5002184
:101ED00070BD19461046012851EB010418BFD4F516
:101EE000001484BF002001F0004170BD0808A0F577
:101EF00000114FEA3101704743004FEAD30C4FEA1B
:101F00003C0C43401FBF40070CF1605113F0FE4FE3
:101F100070471CF0006F03D100200CF000417047A7
:101F20000CF0004343EA507010B540EACC0000F0DA
:101F30000EF800BF000000924FEA0001FFF7D6BF85
:101F40004FF000414FF00000A1F5002170470EF165
:101F5000020E2EF0030E5EF8044B244204D44FEA26
:101F60004102B2F17F4F11D84FEA4003B3F17F4FE6
:101F70000CD80ED14FEAD07CB2F17F4F0CEB4C0C59
:101F80000CF1020C08BF4CEBD17C04E04FF0080CC4
:101F900001E04FEAD17C0CEB4C0324FA03F404F08B
:101FA0000704B4F1040C06D20EEB840CBDE810401B
:101FB0004CF0010C6047DFE80CF0070802024FF01C
:101FC0000040A0F5800010BD0846420018BFD2F1C5
:101FD000807288BF00F0004010BD4FF04070E1EE0D
:101FE000100A7047FF2141EAD050C0057047000039
:101FF00000000000000001020304060708090000B9
:102000000000010203040000282000080000002056
:1020100038000000C40100086020000838000020DB
:10202000F0060000E0010008000000008D1B000821
:10203000F401000000000000D11B0008C8000000EF
:1020400000000000000000003333833F0000000068
:102050000100000010000000000000000024F40057
:040000050800018965
:00000001FF
