:020000040800F2
:10000000D80C0020490200082F2E00087D2A000885
:100010002D2E0008850500082D370008000000007F
:10002000000000000000000000000000452F000854
:100030005D06000800000000312E0008912F000826
:1000400063020008630200086302000863020008FC
:1000500063020008630200086302000863020008EC
:1000600063020008630200086302000863020008DC
:10007000630200088905000863020008950500086E
:1000800063020008630200086302000863020008BC
:1000900063020008630200086302000863020008AC
:1000A000630200086302000863020008630200089C
:1000B000630200086302000863020008630200088C
:1000C000630200086302000863020008630200087C
:1000D0006302000821370008630200086302000879
:1000E000630200086302000863020008630200085C
:1000F000630200086302000863020008630200084C
:10010000630200086302000863020008630200083B
:100110000D33000863020008630200086302000850
:100120006302000863020008A105000863020008DA
:1001300063020008000000000000000063020008E5
:1001400063020008630200086302000863020008FB
:100150006302000863020008AD050008630200089E
:1001600063020008630200086302000863020008DB
:1001700063020008630200080000000000000000A5
:10018000630200086302000800F002F800F04CF877
:100190000AA090E8000C82448344AAF10107DA45E2
:1001A00001D100F041F8AFF2090EBAE80F0013F0E8
:1001B000010F18BFFB1A43F001031847045A00004F
:1001C000245A00000A4410F8014B14F00F0508BF30
:1001D00010F8015B240908BF10F8014B6D1E05D013
:1001E00010F8013B6D1E01F8013BF9D1641E03D0EC
:1001F000641E01F8015BFBD19142E4D3704700001B
:100200000023002400250026103A28BF78C1FBD81F
:10021000520728BF30C148BF0B6070471FB505F0BB
:100220003CFC1FBD10B510BD00F0E2F81146FFF711
:10023000F5FF04F08DFB00F000F903B4FFF7F2FFC7
:1002400003BC00F003F90000094880470948004753
:10025000FEE7FEE7FEE7FEE7FEE7FEE7FEE7FEE776
:10026000FEE7FEE704480549054A064B70470000D3
:100270002930000889010008D8060020D80C002089
:10028000D8080020D808002053EA020C00F069804A
:100290002DE9F04B4FF00006002B1FBFB3FA83F59A
:1002A00003FA05F424FA05F65E4012BF1643B2FACB
:1002B00082F502FA05F4C5F120051EBF22FA05FCFD
:1002C00044EA0C04203556EA044C4FEA144418BFA3
:1002D000641C4FF000084FF00009904271EB030CD2
:1002E00039D3002919BFB1FA81F701FA07F6B0FA3C
:1002F00080F700FA07F6C7F120071EBF20FA07FCB7
:1003000046EA0C062037B6FBF4FCA7EB0507103FC6
:1003100007F01F0BCBF120060CFA0BFB2CFA06F6AC
:1003200044BFB3460026202FA4BF5E464FF0000B0B
:100330005BEA060C08BF4FF0010B19EB0B09ABFB96
:10034000027C48EB0608C01B06FB02CC0BFB03CC6F
:1003500071EB0C01C1E70B46024641464846BDE839
:10036000F08B13B54FF000004FF00001AFF30080A9
:10037000BDE81C4070474FF0000200B5134694469C
:100380009646203922BFA0E80C50A0E80C50B1F1ED
:100390002001BFF4F7AF090728BFA0E80C5048BF01
:1003A0000CC05DF804EB890028BF40F8042B08BF9F
:1003B000704748BF20F8022B11F0804F18BF00F89B
:1003C000012B704770477047704710B500F008F870
:1003D000006810BD10B5044600F002F8046010BDBE
:1003E00000487047740600200048704774060020DB
:1003F0007546FFF7F9FFAE4605006946534620F003
:100400000700854618B020B5FFF72CFFBDE8204057
:100410004FF000064FF000074FF000084FF0000BC0
:1004200021F00701AC46ACE8C009ACE8C009ACE873
:10043000C009ACE8C0098D46704710B50446AFF35B
:1004400000802046BDE81040FFF7F7BE01491820A4
:10045000ABBEFEE72600020070470000464910B51B
:100460004A6822F440324A604A6843681A434A6044
:1004700001684A6822F480724A6001684A68036928
:1004800042EA03224A6001684A6822F040724A60E8
:1004900001684A6883681A434A6001688A6822F4DE
:1004A00000628A6001688A68C3681A438A60816A48
:1004B0006FF07062D14201688A6822F070628A60CF
:1004C00001688A680CD0836A1A438A6001688A6866
:1004D00022F040528A6001688A68C36A1A4301E0C8
:1004E00022F040528A6001688A6822F002028A6023
:1004F00001688A68037E42EA43028A6090F820100D
:10050000002901684A680FD042F400624A6001681D
:100510004A6822F460424A6001684A68174C436A9C
:1005200004EB43331A4301E022F400624A6001689D
:10053000CA6A22F47002CA620168CA6A838B104CCC
:1005400004EB03531A43CA6201688A6822F40072FA
:100550008A6001688A6890F8303042EA43228A60F3
:1005600001688A6822F480628A6001688A6840694A
:1005700042EA8020886010BD0023014000E0FFFFB8
:100580000000F0FFFEE70000014800F0BDBA0000E7
:10059000F4040020014800F0B7BA00005405002020
:1005A000014800F0B1BA0000B4050020014800F095
:1005B000ABBA00001406002001681823CAB2103A32
:1005C000B2FBF3F2054B6FF30901032A9B5CC36591
:1005D00000D9091D8165084670470000AE5A000821
:1005E00010B5014600208B698A6A4FF0C07453B180
:1005F000B3F5005F15D072B1012A0CD0022A0AD0DF
:10060000032A09D104E01AB1012A06D0022A03D133
:10061000C96AC90100D5012010BDC96AA142FAD03A
:1006200010BD002AF7D0012AF2D0022AF3D0032A03
:10063000F3D010BD30B50468256825F48025256009
:10064000046863608368402B036803D09960006886
:10065000C26030BD9A600068C16030BD704772B63C
:10066000FEE7000078B50024009490F83C20012AB1
:1006700019D0012280F83C200A6807230568092A5E
:1006800013D9EE680A3A02EB420293409E43EE60B1
:100690000B788A680A3B03EB43039A400368DD68E2
:1006A0002A43DA6010E0022078BD2E6902EB420294
:1006B00093409E432E610B788A6803EB43039A4074
:1006C00003681D692A431A614A681F23072A13D247
:1006D00005686E6B521E02EB820293409E436E636E
:1006E0000B790A885B1E92B203EB83039A4003687E
:1006F0005D6B2A435A6327E005680D2A12D22E6BE0
:10070000D21F02EB820293409E432E630B790A882C
:10071000DB1F92B203EB83039A4003681D6B2A43ED
:100720001A6311E0EE6A0D3A02EB820293409E4397
:10073000EE620B790A880D3B92B203EB83039A4079
:100740000368DD6A2A43DA62164B0568144A9D4243
:1007500006D10D68122D03D1556845F4800555600A
:1007600005689D4218D10B68102B01D0112B13D1B5
:10077000536843F400035360096810290CD10A49F7
:100780000A4A0968B1FBF2F101EB8101490000E07E
:10079000491E00910029FBD180F83C40002078BD23
:1007A00000230140002001406C01002040420F0066
:1007B0000068C06C704770B504004FF0000503D0AE
:1007C000206C002610B107E0012070BD204600F02B
:1007D0001DF8666484F83C60206CC00610D4206C60
:1007E00020F4885040F0020020642046FFF736FED7
:1007F0006664206C20F0020040F00100206400E0FC
:10080000012584F83C60284670BD000010B586B014
:10081000044614216846FFF7AEFD1149206888425E
:100820001CD110480021026842F480720260006806
:1008300000F4807005900B481438026842F00402FE
:100840000260006800F0040005900420009003207E
:10085000CDE901016946044800F0DAFA06B010BD9E
:100860000020014044380240000802402DE9F041D8
:10087000044600680D4681684FF0000749050BD516
:100880008068C00508D5206C40F02000206484F802
:100890003C700120BDE8F08100F0BCFB064613E08F
:1008A000681C11D025B100F0B5FB801BA8420BD904
:1008B00020680068800707D4206C40F004002064A2
:1008C00084F83C700320E5E7206800688007E7D5DE
:1008D00021686FF012000860206C40F40070206402
:1008E0002068816811F0405F13D1217E89B9C16A07
:1008F00011F4700F02D0806840050AD4206C20F4F7
:1009000080702064206CC00403D4206C40F001008F
:1009100020640020BEE7000018B50021009190F887
:100920003C20012A07D0012280F83C20026893680D
:10093000DB0702D011E0022018BD936843F00103E9
:1009400093602E4A2E4B1268B2FBF3F202EB420286
:1009500000E0521E0092002AFBD102689368DB0778
:1009600042D0036C40F20164A34343F480730364F8
:1009700053685B0505D5036C23F4005343F480539F
:100980000364036CDB0404D5436C23F00603436467
:1009900000E0416480F83C101A496FF022031360B4
:1009A00049680068CA06184906D0884224D181687F
:1009B00011F0405F13D01FE08842F8D0134A9042F4
:1009C00003D1D1F80423D206F1D0114A904213D1B9
:1009D000D1F8041301F01F011029E8D30CE081685D
:1009E00041F08041816007E0016C41F01001016439
:1009F000416C41F001014164002018BD6C010020F0
:100A000040420F000023014000200140002101402E
:100A10000022014090F83C1001290CD0012180F8FF
:100A20003C1001688A6822F001028A6001688968C6
:100A3000C90702D007E002207047016C21F48851F9
:100A400041F001010164002180F83C100846704724
:100A50002DE9F0410446876D00F0DCFA064694F873
:100A600035000025022806D08020606584F83450C7
:100A70000120BDE8F0812068016821F016010160C5
:100A80002068416921F080014161206C08B9A06CA7
:100A900020B12068016821F0080101602068016828
:100AA00021F0010101600CE000F0B4FA801B052880
:100AB00007D920206065032084F8350084F834507D
:100AC000D7E720680068C007EED194F85C103F209B
:100AD0008840B860012084F8350084F83450002044
:100AE000C7E790F83510022903D080214165012025
:100AF0007047052180F835100068016821F0010178
:100B000001600020704700002DE9F84304464FF0D3
:100B10000009CDF8009063484FF41651A56D0068A8
:100B2000B0FBF1F72E6894F85C10082000FA01F190
:100B300031420FD021680A6852070BD50A6822F0AB
:100B400004020A6094F85C108840A860606D40F070
:100B50000100606594F85C104FF0010808FA01F09C
:100B6000304208D021684969090604D5A860606D43
:100B700040F00200606594F85C1004208840304228
:100B800008D021680968890704D5A860606D40F025
:100B90000400606594F85C1010208840304218D042
:100BA00021680968090714D5A8602068016849030D
:100BB00004D50068000308D5A16C07E00168C905E9
:100BC00003D4016821F008010160216C09B12046BD
:100BD000884794F85C1020208840304231D021684A
:100BE0000968C9062DD5A86094F835000528206845
:100BF000016806D0490347D5006800031DD4616C25
:100C00001CE021F0160101602068416921F080019B
:100C10004161206C08B9A06C20B12068016821F006
:100C20000801016094F85C103F208840A86084F8B7
:100C3000358084F83490216D1FE0E16B09B12046C6
:100C40008847606D00282BD0606DC00714D0052048
:100C500084F835002068016821F0010101600098E6
:100C6000401C0090B84203D820680068C007F6D145
:100C700084F8358084F83490E16C002910D001B0FC
:100C80002046BDE8F04308470168C905D5D401688E
:100C900021F01001016084F8358084F83490CCE7AD
:100CA000BDE8F8836C0100202DE9F041044600F016
:100CB000B1F906465CB1022084F83500002584F8BD
:100CC00034502068016821F0010101600DE001202D
:100CD000BDE8F08100F09EF9801B052805D9202091
:100CE0006065032084F83500F2E720680068C007DB
:100CF000F0D12268116820480140D4E9010318436B
:100D0000D4E903363343184363691843A36918438E
:100D1000E3691843236A18430843616A042903D12D
:100D2000D4E90B1319430843106020684069666AD0
:100D300020F0070130460E43012704280CD1A06A99
:100D40000643E06A40B12046FFF74AFC20B140204C
:100D5000606584F83570BAE7206846612046FFF781
:100D60002BFC94F85C203F2191408160656584F8FC
:100D700035700020ACE700003F8010F02DE9F04115
:100D80000446866D90F83400002501280DD001201E
:100D900084F8340094F835700020012F07D084F8CF
:100DA000340002252846BDE8F0810220FBE7022737
:100DB00084F8357060652046FFF73CFC94F85C10C1
:100DC0003F208840B0602068016841F01601016052
:100DD000206C20B12068016841F0080101602068A2
:100DE000016841F001010160DCE7000070B50446D4
:100DF00000F010F90546601C02D004480078044455
:100E000000F008F9401BA042FAD370BD6001002039
:100E10002DE9F84FDFF8BCA1002201250AF1040BEF
:100E200003264FF00F090BF1040E00BF0B6805FA03
:100E300002F42340A34270D10F7907F00307012F7A
:100E400001D0022F16D187684FEA420806FA08FC43
:100E500027EA0C07D1F80CC00CFA08FC4CEA070C86
:100E6000C0F808C04768A7430C79C4F30014944045
:100E70003C4344600C79E443A4070AD0C4684FEAB9
:100E8000420C06FA0CF7BC438F6807FA0CF72743AD
:100E9000C7600C7904F00304022C12D1D40800EBD3
:100EA000840CDCF820405707FF0E09FA07F824EA03
:100EB0000804D1F8108008FA07F848EA0408CCF8CA
:100EC000208004684FEA420C06FA0CF7BC430F7905
:100ED00007F0030707FA0CF7274307604C6814F480
:100EE000403F70D03C4C276847F480472760246817
:100EF00022F0030704F480440094384C07EB040C00
:100F0000DCF8084897074FEA177809FA08F7BC4356
:100F1000334FB84202D1002724E054E0314FB842A9
:100F200001D101271EE0304FB84201D1022719E05C
:100F30002E4FB84201D1032714E02D4FB84201D102
:100F400004270FE02B4FB84201D105270AE02A4FB2
:100F5000B84201D1062705E0284FB84201D1072742
:100F600000E0082707FA08F72743CCF80878DAF8F2
:100F700000405746D1F804C09C435FEACC3C00D502
:100F80001C433C60DBF800405F46D1F804C09C4342
:100F90005FEA8C3C00D51C433C60DEF8004077469D
:100FA000D1F804C09C435FEACC2C00D51C433C60C4
:100FB000084F0C373C68D1F804C09C435FEA8C2C86
:100FC00000D51C433C60521C102AFFF42FAFBDE833
:100FD000F88F0000003C01404438024000300140DE
:100FE000000002400004024000080240000C0240E1
:100FF000001002400014024000180240001C024091
:101000000069084000D0012070470AB18161704733
:101010000904FBE701488068704700006001002078
:1010200070B5040025D094F83D00002520B984F85F
:101030003C50204600F0B8F8242084F83D00206899
:10104000016821F0010101602068016841F400415C
:1010500001602068016821F40041016000F02EFA6F
:101060004D4A6168914201D84C4900E04C498842A0
:1010700001D2012070BD4B492368B0FBF1F15E68DD
:1010800026F03F060E435E606368934206D94FF434
:10109000967359434FF47A73B1FBF3F12368491CFB
:1010A0001E6A26F03F06314319626168914210D8EA
:1010B0004900401EB0FBF1F2521CC2F30B02042A9D
:1010C00001D2042022E0B0FBF1F0401CC0F30B0081
:1010D0001CE0A268F2B301EBC10303EB0116431E4F
:1010E000B3FBF6F35B1C43F480431B0549D092B37A
:1010F00001EBC10202EB0111401EB0FBF1F0401CFC
:10110000C0F30B0040F4804040F400402168CA69FD
:101110004CF6FF739A431043C861D4E907100143AA
:101120002068026822F0C00211430160D4E9030183
:1011300001432068826848F2FF339A43114381607B
:10114000D4E9050108432168CA6822F0FF02104370
:10115000C86001E00EE016E02068016841F001017E
:1011600001602564202084F83D00256384F83E500A
:10117000002070BD01EB4106431EB3FBF6F35B1C80
:10118000B3E70120C2E701EB4101401EB0FBF1F0E3
:10119000401CC0F30B00B7E7A086010080841E004E
:1011A00000093D0040420F00F0B587B0044614210D
:1011B0006846FFF7E0F82768234CDFF888C0002274
:1011C000214912230325042620481034674518D1ED
:1011D0000F6847F002070F60096802AF01F00201D3
:1011E0000591C021CDE9001387E864006946FFF747
:1011F0000FFE206840F400102060206800F400100A
:101200001CE0DFF84CC0674519D10F6847F00207B2
:101210000F60096802AF01F0020105914FF44061CF
:10122000CDE9001387E864006946FFF7F1FD206807
:1012300040F480002060206800F48000059007B032
:10124000F0BD00000054004030380240000402406D
:10125000005800400248816802781144816070475C
:10126000600100200B4810B5016841F40071016075
:10127000016841F480610160016841F4807101609E
:10128000032000F06FF80F2000F006F800F024F8BB
:10129000002010BD003C024070B50D4D04464FF4D7
:1012A0007A712878B1FBF0F00A490968B1FBF0F0D7
:1012B00000F040FD48B9102C07D200222146501EF4
:1012C00000F030F800206C6070BD012070BD00009F
:1012D000600100206C0100200A4808B5016841F453
:1012E00080410160006800F4804000900548001FC4
:1012F000016841F080510160006800F0805000906A
:1013000008BD000044380240002809DB00F01F023D
:10131000012191404009800000F1E020C0F8001157
:1013200070470000F0B40E4B1B680C46C3F3022359
:10133000C3F10705042D00D90425191D072901D281
:10134000002300E0DB1E012606FA05F1491E2140BC
:1013500099409E40761E16403143F0BC02F0FFB922
:101360000CED00E0064900F0070208684FF6FF03A5
:10137000184040EA0220034A10430860704700000A
:101380000CED00E00000FA052DE9F0470E460500DF
:1013900065D0DFF81481D8F80000F7B200F007003C
:1013A000B04207D288F80070D8F8000000F00700BB
:1013B000B04254D128683D4C810712D5400703D56F
:1013C000206840F4E05020602878000703D52068AA
:1013D00040F4604020602068A96820F0F0000843D5
:1013E00020602878C0072DD0304968680839012866
:1013F00012D0022813D0032811D0096889070029C8
:101400002DDA216821F0030101432160FFF702FE7C
:10141000814641F2883A0EE009688903EFE70968DE
:101420008901ECE7FFF7F6FDA0EB0901514502D970
:101430000320BDE8F0872068696800F00C00B0EB7D
:10144000810FEFD1D8F80010404601F00701B142FA
:1014500007D90770006800F00700B04201D00120F2
:10146000E7E72878400705D52068E96820F4E050D0
:10147000084320602878000706D52068296920F4F1
:10148000604040EAC100206000F038F82168084A56
:10149000C1F30311515CC840064908600648006862
:1014A000FFF7FAFE0020C4E7003C02400838024083
:1014B000B65A00086C010020640100200448054968
:1014C00000680968044AC1F38221515CC840704732
:1014D0006C01002008380240C65A0008044805493B
:1014E00000680968044AC1F34231515CC840704742
:1014F0006C01002008380240C65A0008154810B593
:10150000006810F00C02144813D04110042A0FD0C8
:10151000082A0ED10F4C241F2268236802F03F02D4
:101520005B0207D52068C0F38810A0FB010106E02C
:10153000084610BD2168C1F38811A1FB00010023FA
:10154000FEF7A2FE2168C1F30141491C4900B0FB2E
:10155000F1F010BD083802400024F4002DE9F84FE6
:1015600004006ED02078DFF84C93C007A9F1040581
:101570004AD009F104000168C1F38101012908D0B2
:101580000068C0F3810002280AD1D9F800004002A7
:1015900006D52868800337D560680028E1D033E09D
:1015A0006068B0F5803F10D0B0F5A02F286810D04B
:1015B00020F480302860286820F48020286060684B
:1015C000A8B1FFF727FD06460DE0286840F48030FB
:1015D000F4E740F480202860F7E700BFFFF71AFD2A
:1015E000801B642873D828688003F7D50CE0FFF7C8
:1015F00011FD064605E000BFFFF70CFD801B6428C7
:10160000F0D828688003F7D42078DFF8AC82800710
:101610004FF0000A3ED5A748001D016811F00C0FDD
:1016200008D00068C0F3810002280BD1D9F800006F
:10163000400207D42868800716D5E068012800D149
:1016400012E033E1E068B8B10120C8F80000FFF70C
:10165000E1FC064605E000BFFFF7DCFC801B02282A
:10166000C0D828688007F7D52868216920F0F800DD
:1016700040EAC10028600DE0C8F800A0FFF7CAFCEE
:10168000064604E0FFF7C6FC801B02281FD8286826
:101690008007F7D42078000722D5864F87486169F4
:1016A000703771B101210160FFF7B4FC064604E018
:1016B000FFF7B0FC801B022809D838688007F7D5EF
:1016C0000EE0C0F800A0FFF7A5FC064605E082E0AA
:1016D000FFF7A0FC801B02287DD838688007F7D46C
:1016E0002078400768D5DFF8CCB100270BF13C0B20
:1016F000DBF80000C0000BD4DBF8001041F0805193
:10170000CBF80010DBF80000012700F080500090BB
:101710006B4E3068C00510D4306840F48070306083
:10172000FFF778FC009005E0FFF774FC0099401A81
:10173000022850D83068C005F6D55E4EA0686C36D9
:1017400001280FD00528306810D020F0010030604B
:10175000306820F004003060A068B8B1FFF75AFC90
:1017600000900FE0306840F00100F4E740F0040022
:101770003060F7E7FFF74EFC0099411A41F28830DC
:10178000814266D830688007F4D50EE0FFF742FC4E
:10179000009007E0FFF73EFC0099411A41F28830C3
:1017A000814256D830688007F4D42FB1DBF800109E
:1017B00021F08051CBF80010A069C8B33D49091D44
:1017C0000968C1F3810102294AD00228504607D096
:1017D000C8F8600000E03CE0FFF71CFC04463BE07A
:1017E0004746C8F86000FFF715FC064605E000BF55
:1017F000FFF710FC801B02282BD828688001F7D443
:10180000D4E907010843A16A2E4A490802EB0141C5
:10181000626A41EA8211084394F82C1040EA01619F
:10182000C9F8001001203866FFF7F4FB044606E013
:101830003EE000BFFFF7EEFB001B022809D8286836
:101840008001F7D534E000BFFFF7E4FB001B02285E
:1018500002D90320BDE8F88F28688001F4D427E07E
:101860000128F7D0D9F80000E26900F48001914224
:101870001CD1226A00F03F01914217D147F6C07196
:10188000626A0140B1EB821F10D1A26A4FF0FF33B0
:1018900000F4403103EB5202B1EB024F06D194F851
:1018A0002C1000F07060B0EB016F01D00120D1E787
:1018B0000020CFE70438024000004742800E474234
:1018C000007000400000FFFF70B5040009D0606A9E
:1018D000002540B125616561A56294F8510040B1D1
:1018E0000CE0012070BD6068B0F5827FF4D0E56146
:1018F000F2E784F85050204600F044F8022084F8C3
:1019000051002068016821F040010160A088218910
:1019100000F4827001F404410843A18901F40061DC
:101920000843217C01F002010843217D01F00101FF
:101930000843218B01F400710843217F01F0380135
:10194000084394F8201001F080010843218D01F430
:101950000051084321680860A069042101EA104091
:1019600094F8241001F010010843216848602068B1
:10197000C16921F40061C1616565012084F85100ED
:10198000002070BD10B586B0044614216846FEF7ED
:10199000F2FC13492068884220D1124800210268D5
:1019A00042F480520260006800F4805005900D48B7
:1019B0001438026842F001020260006800F0010081
:1019C0000590E02000900220CDE901010320039062
:1019D0000520049069460448FFF71AFA06B010BDC6
:1019E0000030014044380240000002402DE9F84F29
:1019F000044690F8500000271D46164689460128E7
:101A00000DD04FF0010B84F850B0FFF703FB804678
:101A100094F85100BA46012804D0022793E002202E
:101A2000BDE8F88FB9F1000F73D0002E71D00320FC
:101A300084F85100C4F854A0C4F83090A686E68615
:101A4000C4F838A0A4F83CA0A4F83EA0C4F844A070
:101A5000C4F840A0A068B0F5004F09D12068016823
:101A600021F0400101602068016841F4804101607B
:101A700020680168490603D4016841F04001016013
:101A8000E068B0F5006F606803D030B3012E24D059
:101A900041E008B1012E1CD1206B21680088C8608C
:101AA00006E020688168890709D5216B0988C16033
:101AB000206B801C2063E08E401EE08609E0FFF76B
:101AC000A9FAA0EB0800A84202D3681C01D031E0BB
:101AD0007DB3E08E0028E4D120E0206B21680078FF
:101AE000087306E020688168890709D5216B0978A9
:101AF0000173206B401C2063E08E401EE0860AE0EC
:101B0000FFF788FAA0EB0800A84203D3681C02D0B4
:101B100010E017E06DB1E08E0028E3D1424629467F
:101B2000204601F087F908B120206065A06818B14F
:101B300006E0FFE7032706E02068C16880680090A0
:101B4000606D00B1012784F851B084F850A0384688
:101B500066E72DE9F84F044690F8500000270A9EEA
:101B60001D4692468B464FF0010901280ED00120F8
:101B700084F85000FFF74EFA804694F851006168EF
:101B800001280CD0B1F5827F07D102E00220BDE828
:101B9000F88FA16809B9042801D00227C2E0BBF17F
:101BA000000F27D0BAF1000F24D01DB394F85100D4
:101BB000042802D0052084F8510000206065C4F894
:101BC00038A0E587A587C4F830B0E586A5862064EF
:101BD000606420680168490603D4016841F040014F
:101BE0000160E068B0F5006F606805D0E8B3012DD2
:101BF00046D07FE0012795E008B1012D39D1206B57
:101C000021680088C860206B801C2063E08E401E25
:101C1000E0862EE02068816889070FD5E18E69B1E2
:101C2000B9F1010F0AD1216B0988C160206B801CBA
:101C30002063E08E401EE0864FF000092068816836
:101C4000C9070CD0E18F51B1C068A16B0880A06BAF
:101C5000801CA063E08F401EE0874FF00109FFF772
:101C6000D9F9A0EB0800B04200E009E001D3701CF4
:101C700050D1E08E0028CDD1E08F0028CAD13FE0BE
:101C8000206B216800780873206B401C2063E08E75
:101C9000401EE0862EE02068816889070FD5E18E1E
:101CA00069B1B9F1010F0AD1216B09780173206B79
:101CB000401C2063E08E401EE0864FF00009206843
:101CC0008168C9070CD0E18F51B1C068A16B087061
:101CD000A06B401CA063E08F401EE0874FF001091D
:101CE000FFF798F9A0EB0800B04202D3701C01D0B6
:101CF00010E07EB1E08E0028CDD1E08F0028CAD15F
:101D000042463146204601F095F828B101272020AF
:101D1000606507E0032705E0A06818B92068C1687E
:101D200080680090012084F85100002084F8500061
:101D300038462CE710B5401EB0F1807F01D301205A
:101D400010BD4FF0E02460610F21601701F007FD26
:101D50000020A06107202061002010BD10B590F880
:101D60003C20012A22D0012280F83C20CA688C68DD
:101D700022F4407222434C6822F4806222430C68B1
:101D800022F4006222430C6922F4805222434C69FF
:101D900022F400522243C969002322F480420A43FC
:101DA00001684A6480F83C30002010BD022010BD5C
:101DB00070B590F83C20012A32D0012480F83C40D4
:101DC000022280F83D2003685A689D6822F0700660
:101DD0000A6832435A60134B02689A4214D0B2F137
:101DE000804F11D0104B9A420ED0104B9A420BD01C
:101DF0000F4B9A4208D00F4B9A4205D00E4B9A4295
:101E000002D00E4B9A4204D1496825F08003194351
:101E1000916080F83D40002180F83C10084670BD7C
:101E2000022070BD00000140000400400008004096
:101E3000000C004000040140004001400018004038
:101E400010B5040003D094F83D0010B107E0012064
:101E500010BD002084F83C00204600F01FF802204E
:101E600084F83D00211D206801F0E6F8012084F887
:101E7000460084F83E0084F83F0084F8400084F86F
:101E8000410084F8420084F8430084F8440084F858
:101E9000450084F83D00002010BD000008B5006832
:101EA0000649884208D10648016841F002010160F4
:101EB000006800F00200009008BD0000000401402E
:101EC0004438024070B5044690F83C0000250128D3
:101ED00017D0012684F83C60022084F83D00206879
:101EE000826822F0770222F47F42826008685028DC
:101EF00038D00DDC20284FD005DC90B3102811D14C
:101F00004AE0022070BD302846D040280AD13BE08C
:101F100060282FD070280DD0B0F5805F03D0B0F5C9
:101F2000005F12D0012584F83D60002084F83C0059
:101F3000284670BDCB68D1E90121206801F0EDF899
:101F40002068816841F0770109E0CB68D1E901217F
:101F5000206801F0E2F82068816841F480418160E6
:101F6000E1E719E0CA684968206801F0ABF950213F
:101F7000206806E0CA684968206801F0B4F9602169
:101F8000206801F0D4F8CEE7CA684968206801F0FB
:101F900099F940212068F4E7226801461046F0E7ED
:101FA00010B586B0044614216846FEF7E4F90E49E0
:101FB0002068884216D10D480021026842F00402D0
:101FC0000260006800F0040005904FF4707000900B
:101FD0000220CDE901010320CDE903106946044840
:101FE000FEF716FF06B010BD000401403038024075
:101FF0000008024070B5044690F83C0000260D46EB
:1020000001280FD0012084F83C006AB1042A1DD0B9
:10201000082A2FD00C2A3FD00126002084F83C004B
:10202000304670BD022070BD206801F089F820683C
:10203000816941F0080181612068816921F0040112
:102040008161206881692A69114311E0206801F0EB
:10205000A7F82068816941F4006181612068816985
:1020600021F480618161206881692A6941EA022145
:102070008161D2E7206801F0C9F82068C16941F0A8
:102080000801C1612068C16921F00401C1612068B3
:10209000C1692A69114311E0206801F0EBF820685A
:1020A000C16941F40061C1612068C16921F48061A6
:1020B000C1612068C1692A6941EA0221C161ACE7B6
:1020C00010B5040003D094F83D0010B107E00120E2
:1020D00010BD002084F83C00204600F01EF80220CD
:1020E00084F83D00211D206800F0A6FF012084F83F
:1020F000460084F83E0084F83F0084F8400084F8ED
:10210000410084F8420084F8430084F8440084F8D5
:10211000450084F83D00002010BD704710B504460E
:10212000022249B104290ED0082913D094F84100A5
:10213000012816D0012010BD94F83E000128F9D1E5
:1021400084F83E200FE094F83F000128F2D184F893
:102150003F2008E094F840000128EBD184F84020AB
:1021600001E084F841200122206800F0C9FF1649EF
:102170002068164A884201D0904203D1436C43F450
:10218000004343642068884213D0B0F1804F10D0E0
:102190000F4988420DD00F4988420AD00E49884223
:1021A00007D0904205D00D49884202D00C498842A0
:1021B00004D1816801F00701062903D0016841F0CC
:1021C00001010160002010BD000001400004014039
:1021D0000004004000080040000C004000400140A6
:1021E0000018004038B5044690F83E00202822D15F
:1021F00081B17AB194F83C0001281CD0012084F808
:102200003C002063204601F043FA002803D1216BF3
:10221000012901D0012038BD21680A684968009170
:1022200021680C3151E8002F42F0100241E80023F0
:10223000002BF5D138BD022038BD00002DE9F84350
:102240000C46944A016891427ED100F04DF9802CF1
:102250001BD891480178FE2917D14178EF29FBD18D
:10226000C178012912D0DFF834829FED8D0A8D4AA2
:102270008D4B8E4C8E4D8F4E8F4FDFF840C2DFF866
:102280004092022921D003297DD0E1E001798D4BD4
:1022900001EB81024FF47A7101EB42021A8042791C
:1022A000894B02EB820201EB42021A808279874B52
:1022B00002EB820201EB42021A80C07900EB80003F
:1022C00001EB400082490880C2E0D8ED000A60EED0
:1022D000800AFCEEE00A10EE900AADF800007D489E
:1022E000BDF800108180D2ED000A60EE800AFCEE9D
:1022F000E00A10EE901AADF80010C180D3ED000A8C
:1023000060EE800AFCEEE00A10EE901AADF80010C4
:102310000181D4ED000A60EE800AFCEEE00A10EEC6
:10232000901AADF800104181D5ED000A60EE800AE8
:10233000FCEEE00A10EE901AADF800108181D6EDA7
:10234000000A60EE800A00E086E0FCEEE00A10EE93
:10235000901AADF80010C181D7ED000A60EE800A36
:10236000FCEEE00A10EE901AADF800100182DCEDF0
:10237000000A60EE800AFCEEE00A10EE901AADF85A
:102380000010418200E010E0D9ED000A172220EE93
:10239000800ABCEEC00A10EE101AADF8001081825F
:1023A00001464D4800F022FB52E0818800EE901A71
:1023B000F8EE600A80EE801A88ED001AC18800EEFF
:1023C000901AF8EE600A80EE801A82ED001A0189F8
:1023D00000EE901AF8EE600A80EE801A83ED001A83
:1023E000418900EE901AF8EE600A80EE801A84EDC2
:1023F000001A818900EE901AF8EE600A80EE801AC9
:1024000085ED001AC18900EE901AF8EE600A80EEA0
:10241000801A86ED001A018A00EE901AF8EE600A22
:1024200080EE801A87ED001A418A00EE901AF8EECD
:10243000600A80EE801A8CED001A808AADF80000E8
:1024400000EE900AF8EE600A80EE801A89ED001A1C
:1024500080221149204816E0204A914217D100F00D
:1024600043F8192C0BD10C49803108780F2806D17C
:102470001B4A00200B5C1354401C1928FADB064948
:10248000802218488031BDE8F843FFF7ABBEBDE8B5
:10249000F883000000100140DC0100200001002052
:1024A00000007A4404010020080100200C010020F3
:1024B0001001002014010020180100201C01002040
:1024C0002001002064000020660000206800002039
:1024D0006A00002048010020B0040020004C0040A9
:1024E000700100206C04002010B5044600684069AB
:1024F00094F83D10C0F3C010212911D180B120689B
:10250000143050E8001F21F0800140E80012002A3A
:10251000F5D1606B08B1FEF79BFA204600F0C4FFCE
:102520002068406994F83E10C0F38010222911D130
:1025300080B12068143050E8001F21F0400140E8CD
:102540000012002AF5D1A06B08B1FEF781FA2046EF
:1025500000F083FF002010BD70470000F8B501684F
:1025600004460868CA684B6910F00F0F4FF0000569
:102570005AD003F0010602F49077374365D0C107C3
:1025800005D0D10503D5216C41F00101216441073B
:1025900005D5D90703D0216C41F0020121648107E0
:1025A00005D5D90703D0216C41F00401216401074E
:1025B00007D502F02001314303D0216C41F008011E
:1025C0002164216C00293BD0800604D5900602D5F9
:1025D000204600F077FF20684069216CC0F380102E
:1025E00001F00801014320462BD000F036FF20689F
:1025F0004069400621D52068143050E8001F21F0C2
:10260000400140E80012002AF5D1A06BA8B16C4946
:102610000165A06BFEF765FA002811D0A06B016D73
:1026200001B0BDE8F040084783060ED593060CD5EF
:102630002046BDE8F84000F045BF2046FFF78CFF7C
:10264000F8BDFFF789FF2564F8BD266B2023012E16
:1026500079D1C60677D5D60675D508684868009042
:102660004869400640D5A16B086840680004000C2A
:10267000EAD0A28D8242E7D9E085C869B0F5807FB3
:102680002DD020680C3050E8001F21F4807140E804
:102690000012002AF5D12068143050E8001F21F004
:1026A000010140E80012002AF5D12068143050E8FA
:1026B000001F21F0400140E80012002AF5D184F803
:1026C0003E30256320680C3050E8001F21F01001D7
:1026D00040E80012002AF5D1A06BFEF7B9F9A08DF1
:1026E000E18D401A81B229E0A08DE18D401A81B2BE
:1026F000E08D0028A8D00029A6D020680C3050E832
:10270000002F22F4907240E80026002EF5D12068B8
:10271000143050E8002F22F0010240E80026002E7D
:10272000F5D184F83E30256320680C3050E8002F46
:1027300022F0100240E80023002BF5D12046FFF7DD
:102740007DFDF8BDFFE705062BD5150629D594F8C4
:102750003D002128F5D1A068B0F5805F01D1206946
:10276000B0B1206A411C2162216800784860E08C89
:10277000401E0004000CE084E3D12068C16821F011
:102780008001C1602068C16841F04001C160D8E7A4
:10279000206A0088C0F308004860206A801C20621C
:1027A000E5E74006CDD55006CBD5CA68204622F0D5
:1027B0004002CA6084F83D3000F05EF9C1E70000D5
:1027C0001933000870B5040004D094F83D000025CA
:1027D00010B106E0012070BD84F83C50204600F0A6
:1027E00023F8242084F83D002068C16821F40051BA
:1027F000C160204600F0C6FE2068016921F49041C6
:1028000001612068416921F02A0141612068C168A5
:1028100041F40051C1602564202084F83D0084F813
:102820003E00002070BD00002DE9F04F87B0044647
:1028300014216846FDF79FFD634B2168634802261B
:102840000327634A00254FF0006A4FF4806B9942DA
:102850005FD15E4910310B6843F400230B600968B7
:1028600001F400210591016841F001010160006857
:102870004FF0010900F001004FF00808CDF800907A
:10288000CDE904800397CDE9016569461046FEF75E
:10289000BFFA0096CDE90169CDE9037869464C4855
:1028A000FEF7B6FA4C4E4B484FF480393060C6E91B
:1028B00001A5C6E9035B7561B561C6E907595746CD
:1028C000D84630467562FEF7EFF908B1FDF7C7FE4E
:1028D000A663B463404E3F4860363030E6E80207F6
:1028E0004020A6E821013C4846F814596030B56103
:1028F000C6E907597562FEF7D7F908B1FDF7AFFED3
:102900006663002211463420B463FEF70BFD3420C9
:1029100054E0324B994253D12C4914310B6843F0A7
:1029200010030B60096801F010010591016841F086
:10293000010101600068029500F0010005904FF46C
:10294000C060CDE900060720CDE903706946104656
:10295000FEF75EFA204E2248C0364FF480393060D0
:10296000C6E901A5C6E9035B7561B561C6E907590A
:10297000D0465F4630467562FEF796F908B1FDF71E
:102980006EFEA663B4631648164E7830E6E8020879
:102990004020A1C6134846F81459B561C6E9075945
:1029A0007562FEF781F908B1FDF759FE66630022F2
:1029B00011462520B463FEF7B5FC2520FEF7A4FCE4
:1029C00007B0BDE8F08F0000004C004030380240F6
:1029D0000000024040600240F4040020001001406A
:1029E00040640240140600207047704770B50446EA
:1029F00090F83D00202836D191B38AB394F83C007A
:102A0000012830D0012084F83C002162A284E284B5
:102A100000252564212084F83D00636B1348D863AA
:102A2000636B13481864636B1248D864606B134679
:102A300005652668606B321DFEF7A0F921686FF00E
:102A40004000086084F83C502068143050E8001FB3
:102A500041F0800140E80012002AF5D1002070BD4D
:102A6000FFE70120FBE70220F9E700000F34000830
:102A7000513400082933000870477047FEE7000012
:102A80007FB50024154800940194029412490394E0
:102A900001604FF48031C0E901140461047680F8CC
:102AA00020400F49C0E90A140125C561C46080F8BF
:102AB00030404561FDF77FFE08B1FDF7D0FD0C20E9
:102AC000CDE90005694602940448FDF7CBFD0028D6
:102AD00001D0FDF7C4FD7FBD00200140DC020020D5
:102AE0000100000F194808B5016841F48001016038
:102AF000016801F480010091016841F40011016056
:102B00000068002200F40010009011460D20FEF72E
:102B100009FC0D20FEF7F8FB002211460F20FEF7FE
:102B200001FC0F20FEF7F0FB002211463A20FEF7D1
:102B3000F9FB3A20FEF7E8FB002211464620FEF79B
:102B4000F1FBBDE808404620FEF7DEBB303802400E
:102B5000F0B587B014216846FDF70DFC214800252B
:102B6000016841F080010160016801F08001059178
:102B7000016841F004010160016801F00401059160
:102B8000016841F001010160016801F00101059156
:102B9000016841F0020101600068134E00F002007C
:102BA0000590012210213046FEF72FFA0F4F002228
:102BB00020213846FEF729FA10200124CDE900042F
:102BC0000220CDE9024069463046FEF721F9202077
:102BD0008DE83100694638460395FEF719F907B0CC
:102BE000F0BD000030380240000002400004024006
:102BF0000D4810B50B4901600C49416000214FF4AC
:102C000080428160C0E9031241618161C16101625A
:102C1000FEF706FA002803D0BDE81040FDF71FBDFF
:102C200010BD00000054004024030020A0860100D5
:102C30000D4810B50B4901600C49416000214FF46B
:102C400080428160C0E9031241618161C16101621A
:102C5000FEF7E6F9002803D0BDE81040FDF7FFBC01
:102C600010BD00000058004078030020A08601003D
:102C7000104810B50E4901604FF482714160002187
:102C800002228160C0E90312012242615202C0E9BE
:102C900006210162416281620A21C162FEF714FECF
:102CA000002803D0BDE81040FDF7D9BC10BD0000DE
:102CB00000300140CC03002010B596B000240F94E2
:102CC00010941194129413941C2168461494FDF7E7
:102CD00052FB202107A8FDF74EFB34483249016022
:102CE000A721C0E9011440F6C311C0E903144461EF
:102CF0008461FFF7A5F808B1FDF7B1FC4FF48050EF
:102D00000F900FA92948FFF7DDF808B1FDF7A7FCE0
:102D10002648FFF7D5F908B1FDF7A1FC139413A9D4
:102D200022481494FFF744F808B1FDF798FC60209E
:102D3000CDE90004029403940494059400226946AA
:102D40001A480694FFF756F908B1FDF788FC0422EB
:102D500069461648FFF74EF908B1FDF780FC0822D6
:102D600069461248FFF746F908B1FDF778FC0C22D6
:102D700069460E48FFF73EF908B1FDF770FC07946D
:102D8000089409944FF400500A94CDE90B4007A928
:102D900006480E94FEF7E2FF08B1FDF760FC034819
:102DA000FFF7FEF816B010BD000401402404002017
:102DB0000E4810B50C4901600D4941604FF4805137
:102DC00081604900C160C91001610C21416100218D
:102DD0008161C161FFF7F6FC002803D0BDE8104017
:102DE000FDF73DBC10BD0000004C00406C0400200D
:102DF000A08601000C4810B50A4901604FF4E1318A
:102E00004160002181600C22C160C0E9041281612F
:102E1000C161FFF7D7FC002803D0BDE81040FDF7E3
:102E20001EBC10BD00100140B0040020FEE7FEE70C
:102E30007047000038B504461248134B0068B0FBD9
:102E4000F3F04FF47A73584300906068B0F5827FD6
:102E50000DD10B46009200228021204600F016F88A
:102E600070B1606D40F020006065032038BD0098AF
:102E700030B1401E009020688068C0430006F6D53F
:102E8000002038BD6C01002000366E012DE9F843AA
:102E90001E46914688460446089DFEF7BBF8401B37
:102EA000351AFEF7B7F8074625480068C0F3CB305F
:102EB000684338E0701C37D0FEF7ACF8C01BA8425E
:102EC00003D215B1009860B32CE02068416821F06E
:102ED000E00141606068B0F5827F0BD1A068B0F579
:102EE000004F02D0B0F5806F04D12068016821F056
:102EF00040010160A06AB0F5005F09D12068016857
:102F000021F4005101602068016841F40051016022
:102F1000012084F85100002084F850000320BDE80F
:102F2000F8830025401E00902068816838EA01007F
:102F300004D000214945BDD10020F0E70121F9E787
:102F40006C0100207047000001490720087070479D
:102F5000000000202DE9F0410C4C0025261F0FE059
:102F6000FEF758F805EB450204EB82018B688F8869
:102F7000C31ABB4203D3886054F8220080476D1CFB
:102F800030788542ECDBBDE8F081000004000020D1
:102F9000FEF760B930B593B030216846FDF7EBF924
:102FA00014210CA8FDF7E7F91D480025016841F040
:102FB00080510160006800F080501190194801684C
:102FC00041F4804101600068022400F480401190C7
:102FD00001200090000401908001CDE9064008AA7C
:102FE0000420A82182E813000B906846FEF7B6FA89
:102FF00008B172B6FEE70CA90F2081E831004FF44A
:10300000A0500F904FF48050109005210CA8FEF7AF
:10301000BBF9002801D072B6FEE713B030BD000046
:1030200040380240007000400248016841F47001DD
:103030000160704788ED00E0F0B50268254C264D30
:10304000264E274F274B4FF0804CA04209D06045B9
:1030500007D0A84205D0B04203D0B84201D0984270
:1030600004D122F0700E4A6842EA0E02A0421BD040
:10307000604519D0A84217D0B04215D0B84213D03D
:10308000984211D0184DA8420ED0184DA8420BD02E
:10309000174DA84208D0174DA84205D0164DA8429A
:1030A00002D0164DA84203D122F44075CA682A43C3
:1030B0004D6922F080022A4302608A68C2620A686F
:1030C0008262A04201D0984201D1096901630121C5
:1030D0004161F0BD000001400004004000080040D4
:1030E000000C004000040140004001400044014049
:1030F0000048014000180040001C00400020004033
:1031000010B501F01F030121046A99408C43046249
:10311000016A9A401143016210BD10B5846842EA09
:10312000032224F47F440A432243826010BD826854
:1031300022F070020A4342F00701816070470000EC
:10314000F0B5026A22F001020262036A42688469F1
:10315000124E24F073050C682C4323F002058B6893
:103160002B430D4DA84201D0B04205D123F00807F2
:10317000CB683B4323F00403A84201D0B04205D101
:103180004D6922F4407215438A692A434260846182
:10319000496841630362F0BD000001400004014042
:1031A000F0B5026A22F010020262026A4368846982
:1031B0000D6824F4E64444EA05248D6822F02002D8
:1031C00042EA05120F4D104EA84201D0B04206D17E
:1031D000CF6822F0800242EA071222F04002A842A1
:1031E00001D0B04207D14D6923F4406343EA85031F
:1031F0008D6943EA850343608461496881630262A3
:10320000F0BD00000000014000040140F0B5026A7A
:1032100022F480720262026A4368C46922F4007276
:1032200024F073050C68124E2C438D6842EA052287
:103230000E4DA84201D0B04206D1CF6822F4006200
:1032400042EA072222F48062A84201D0B04207D1AC
:103250004D6923F4405343EA05138D6943EA05138E
:103260004360C4614968C1630262F0BD000001406F
:103270000004014030B5026A22F480520262046AFE
:103280004268C3690D6823F4E64343EA05238D6869
:1032900024F4005444EA0534084DA84202D0084DF5
:1032A000A84204D14D6922F4804242EA851242606C
:1032B000C36149680164046230BD00000000014040
:1032C0000004014010B5036A046A24F0010404629A
:1032D000846924F0F00444EA021423F00A020A4349
:1032E0008461026210BD10B5036A23F0100303620B
:1032F0008369046A23F4704343EA023224F0A00392
:1033000043EA01118261016210BD00000148FFF72C
:1033100025B900006C04002010B5806B0021C18528
:10332000C184FFF719F910BD70B5846B206840693E
:1033300094F83D10C0F3C0100025212904D118B124
:10334000E584204600F0B0F82068406994F83E100B
:10335000C0F38010222904D118B1E585204600F081
:103360007CF8206C40F0100020642046FFF7F4F851
:1033700070BD10B50146806B09680968C9052FD476
:103380000021C18501680C3151E8002F22F48072C0
:1033900041E80023002BF5D10168143151E8002FDA
:1033A00022F0010241E80023002BF5D1016814311D
:1033B00051E8002F22F0400241E80023002BF5D114
:1033C000202180F83E10016B012909D101680C31E0
:1033D00051E8002F22F0100241E80023002BF5D124
:1033E000016B012902D0FFF7FFFA10BD818DFEF7B6
:1033F00025FF10BD10B5806B016B012902D0FFF7CE
:10340000F4FA10BD818D4908FEF718FF10BD10B504
:103410000146806B09680968C90516D40021C1847A
:103420000168143151E8002F22F0800241E80023A6
:10343000002BF5D101680C3151E8002F42F0400219
:1034400041E80023002BF5D110BDFFF715FB10BD9F
:1034500010B5806BFFF711FB10BD01680C3151E80E
:10346000002F22F4907241E80023002BF5D101686F
:10347000143151E8002F22F0010241E80023002B13
:10348000F5D1016B012909D101680C3151E8002FF8
:1034900022F0100241E80023002BF5D1202180F812
:1034A0003E1000210163704701680C3151E8002F84
:1034B00022F0C00241E80023002BF5D1202180F842
:1034C0003D10704708B590F83E10222901D0022027
:1034D00008BD82684FF480539A4201D1016921B13D
:1034E000816A9A421BD04AB10AE00268816A526836
:1034F000C2F308020A80816A891C08E0026972B17D
:103500000268526802F07F020A70816A491C816277
:10351000C18D491E0904090CC18503D019E0026858
:103520005268F1E70168CA6822F02002CA600168A7
:10353000CA6822F48072CA6001684A6922F00102F6
:103540004A61202180F83E10016B012903D0FFF76A
:103550004BFA002008BD0021016301680C3151E8DD
:10356000002F22F0100241E80023002BF5D1016862
:103570000A68D20602D50A6849680091818DFEF773
:103580005DFEE6E770B5044600680169E26821F473
:103590004051114301612169A068E26908436169F2
:1035A000114308432168CA6849F20C639A430243F5
:1035B000CA6020684169A26921F4407111434161E8
:1035C00031492068884202D03049884202D1FDF753
:1035D00085FF01E0FDF772FFE269002319216425F0
:1035E0003226B2F5004F626828D0A0FB0101930F8C
:1035F0009200FCF749FE0146B0FBF5F06FF01802AF
:10360000504301EB800006EB0010B0FBF5F000F03A
:10361000F002B1FBF5F002EB0012B1FBF5F06FF038
:103620001803584301EB800006EB0010B0FBF5F0E7
:1036300000F00F0021681044886070BDA0FB0101FC
:1036400092185B41FCF720FE0146B0FBF5F0020149
:10365000B1FBF5F06FF01803584301EB800006EB67
:10366000C000B0FBF5F000F0F80002EB4002B1FB47
:10367000F5F0584301EB800006EBC000B0FBF5F01D
:1036800000F00700D6E700000010014000140140E0
:1036900038B58162828500251346044605642220E0
:1036A00084F83E00A26B1B48D063A26B1A481064DA
:1036B000A26B1A48D064A06B0A4605652168A06B0E
:1036C000091DFDF75BFB206801684068009084F8E5
:1036D0003C5020680C3050E8001F41F4807140E8F5
:1036E0000012002AF5D12068143050E8001F41F084
:1036F000010140E80012002AF5D12068143050E89A
:10370000001F41F0400140E80012002AF5D10020DE
:1037100038BD000073330008F53300082933000872
:103720000148FEF71BBF0000B0040020FEE703B411
:1037300001984100009850EAC12018BF04204A0DAA
:1037400018BF40F0010040F2FF72B2EB515F08BFBA
:1037500040F00200012808BF052002B070470907A9
:10376000090E002804DB00F1E02080F80014704707
:1037700000F00F0000F1E02080F8141D70470000F9
:1037800070B5C1482DED020B2DED0E8B82B0119D51
:1037900025F000449FEDBEDB9FEDBFEB84423EDB96
:1037A000A4F140511098A1F17F6108430FD0BC48AB
:1037B000844202DC28D1109830B39DED100B02B08A
:1037C000BDEC0E8B02B0BDE8704000F069BC9DED11
:1037D000100B53EC1D2B51EC100B01F02DFE9DED49
:1037E000100B41EC180B53EC1E2B51EC100B01F09D
:1037F00023FE53EC182B01F00BFC41EC100B02B034
:10380000BDEC0E8B02B070BD0120FCF7E3FD02B0F1
:10381000BDEC0E8B02B0BDE8704000F055BCA14875
:103820009FEDA18B844256DA9DED100BB4F1795FC8
:103830000ADA51EC100BFFF77AFF042808BF00F0FA
:1038400053FC9DED100BDAE753EC102B51EC100BF1
:1038500001F0F2FD41EC190B95480621B0EE490A42
:10386000F0EE690A784400F09FFB53EC192B51EC01
:10387000100B01F0E1FD41EC1A0B8E48B0EE490A45
:10388000F0EE690A0421784400F08EFB53EC192B0A
:1038900051EC100B01F0D0FD53EC182B01F0B8FBEC
:1038A00041EC100B51EC1A0B53EC102B01F058FCAF
:1038B000CDE900019DED000B53EC102B9DED100B9D
:1038C00051EC100B01F0B8FD9DED101B53EC112BCA
:1038D00001F09EFBD2E09DED100B51EC100B00F0BF
:1038E0001BFC53EC182B01F0A5FE9FED730BCDE9EB
:1038F000000153EC102B9DED000B51EC100B01F06F
:103900009BFD41EC190B6E480621B0EE490AF0EE22
:10391000690A784400F048FB53EC192B51EC100B6A
:1039200001F08AFD41EC1B0B6648B0EE490AF0EE4F
:10393000690A0421784400F037FB53EC192B51EC51
:10394000100B01F079FD53EC182B01F061FB41ECF9
:103950001C0B51EC190B01F044F941EC180B5A48BF
:103960009FED5BABA04222DC53EC1C2B51EC1B0BFC
:1039700001F0F6FBCDE900019DED000B51EC180BB9
:1039800053EC102B01F058FD53EC182B01F040FBC9
:1039900053EC1A2B01F050FD53EC1D2B01F022FFCC
:1039A00053EC1E2B01F046FE41EC100B5FE08DED59
:1039B000008B002000909DED000B51EC180B53EC98
:1039C000102B01F025FB9DED000B41EC1E0B53EC81
:1039D000102B51EC100B01F02FFD53EC192B01F0C3
:1039E00029FE53EC1E2B01F0BBFB41EC190B53ECF1
:1039F0001C2B51EC1B0B01F0B3FB41EC1B0B53ECEC
:103A00001A2B51EC190B01F017FD53EC1D2B01F093
:103A100011FE41EC190B53EC1A2B51EC180B01F071
:103A20000BFD53EC1B2B01F007FD53EC192B01F0A0
:103A3000D9FE9DED000B41EC180B53EC1A2B51EC09
:103A4000100B01F0F9FC9FED249B53EC192B01F0B6
:103A5000F1FD41EC100B51EC180B53EC102B01F065
:103A6000C1FE53EC192B01F0E5FD41EC100B002DCC
:103A70003FF7C5AE51EC100B01F08CFA41EC100B86
:103A8000BDE60000000000000000F03F0000000064
:103A9000075C143326A6913C182D4454FB21F93FB2
:103AA0000000F07F0000E03F000000000000F03F59
:103AB0006822000076220000000000000000E03FC5
:103AC000BA210000C82100003333EF3F000000009E
:103AD0000000000000000040182D4454FB21E93F85
:103AE00070B59B482DED020B2DED068B079D25F043
:103AF0000044A04218DC9748844202DC0AD10698B0
:103B000040B19DED060BBDEC068B02B0BDE87040E8
:103B100000F0C6BA002DCCBF9FED8F0B9FED900B30
:103B2000BDEC068B02B070BD8F48A04215DD8F48FA
:103B3000A042D8BF4FF0FF3458DD9DED060B51EC8D
:103B4000100BFFF7F4FD042808BF00F0CDFA9DED3F
:103B5000060BBDEC068B02B070BD9DED060B51EC63
:103B6000100B00F0D9FACDE9060181489FED828B58
:103B7000A0423CDD8248A0421FDD00249FED82ABC5
:103B80009DED060B53EC1A2B51EC100B01F040FA93
:103B90009DED060B41EC190B53EC1A2B51EC100B5D
:103BA00001F04AFC53EC182B01F01CFE53EC192BCE
:103BB00001F0D6FACDE9060149E09DED060B01249E
:103BC00053EC182B51EC100B01F022FA9DED060B73
:103BD00041EC190B53EC182B51EC100B01F002FEC9
:103BE00053EC192B01F0BCFACDE906012FE068482F
:103BF000A0421FDD02249FED689B9DED060B53EC58
:103C0000192B51EC100B01F017FC53EC182B01F0A1
:103C1000FFF99DED060B41EC180B53EC192B51EC01
:103C2000100B01F0DFFD53EC182B01F099FACDE9F0
:103C300006010CE09DED060B032453EC102B9FEDC9
:103C4000580B51EC100B01F08BFACDE906019DEDFC
:103C5000060B53EC102B51EC100B01F0EDFB41EC7B
:103C6000180B53EC182B01F0E7FB41EC190B4E48F5
:103C70000621B0EE490AF0EE690A784400F094F9A2
:103C800053EC182B51EC100B01F0D6FB41EC180B48
:103C90004648B0EE490AF0EE690A0521784400F082
:103CA00083F953EC192B51EC100B01F0C5FB41ECDF
:103CB000100B51EC180B53EC102B002C0EDA01F00A
:103CC000A7F99DED061B53EC112B01F0B5FB9DED03
:103CD000061B53EC112B01F0ADFC35E001F098F917
:103CE0009DED061B53EC112B01F0A6FB41EC100BD4
:103CF0002F48784400EBC40090ED001B51EC100BF2
:103D000053EC112B01F06EFD9DED061B53EC112BB6
:103D100001F068FD41EC100B2648784400EBC4002C
:103D200090ED001B51EC100B53EC112B01F082FCB9
:103D300041EC100B002DA2BFBDEC068B02B070BD94
:103D400051EC100B01F026F941EC100B01E70000DB
:103D5000000010440000F07F182D4454FB21F93F6F
:103D6000182D4454FB21F9BF0000DC3F0000203E29
:103D70000000F33F00000000000000000000F03FE2
:103D80000000E63F000000000000000000000040CE
:103D90000080034000000000000000000000F83F29
:103DA000000000000000F0BF0A1F0000C01E00005D
:103DB0004A1E0000021E000070B56B4E2DED040B74
:103DC0002DED028B82B0DDF81CC0DDE905235C42DD
:103DD0002CF000411C4341EAD474049D22F00040C1
:103DE000B44205D86C422C4340EAD474B4420BD997
:103DF0009DED061B9DED040B02B0BDEC028B04B0E3
:103E0000BDE8704000F056B9ACF14054A4F17F64B5
:103E10001C430BD0022404EAAC7444EAD274054378
:103E20009FED538B9FED542B07D015E09DED040BB8
:103E300051EC100B00F068F942E0002C11BF012C8E
:103E40009DED040B02B0BDEC028B04BF04B070BD4D
:103E5000022C38D0032C3BD00B439FED491B9FED28
:103E60004A0B0AD0B14218D1B04209D121F08041A9
:103E700020F08040079105900FE0002A15DA10E04D
:103E8000434B7B44002C08BF93ED000B0DD0012C5D
:103E900010D0022C17D0032C1AD0B0421DD1002A0A
:103EA00003DAB0EE410AF0EE610A02B0BDEC028B1B
:103EB00004B070BD93ED000B51EC100B01F06AF8EB
:103EC00041EC100BF1E7B0EE480AF0EE680AECE7BF
:103ED000B0EE420AF0EE620AE7E7401A00153C280D
:103EE000C8BF8DED000B19DCBCF1000FBEBF10F197
:103EF0003C0F9FED290B8DED000B0FDB9DED060BAD
:103F000053EC102B9DED040B51EC100B01F028F934
:103F100000F002F900F0F8F8CDE90001002C08BF2C
:103F20009DED000BC1D0012C10D0022C9FED1C0B7D
:103F300053EC102B9DED000B51EC100B0DD001F04C
:103F400051FC53EC182B01F04DFCB9E7019880F0BF
:103F5000004001909DED000BA7E701F043FC53ECFE
:103F6000182B01F067FBABE70000F07F00000000BA
:103F7000182D4454FB210940182D4454FB2109C03D
:103F8000182D4454FB21F9BF182D4454FB21F93F4F
:103F9000321D0000000000000000000000000000D2
:103FA000075C143326A6A13C70B504462DED028BA8
:103FB0004D1E00EBC500B0EE408AF0EE608A90ED39
:103FC000000B35F0060017D053EC182B51EC100BFA
:103FD00001F032FA41EC100B6D1E04EBC50090EDC0
:103FE000001B51EC100B53EC112B01F011F841ECBC
:103FF000100B35F00600E7D1022D36D0042D1CD071
:10400000062D1CBFBDEC028B70BD53EC182B51EC80
:10401000100B01F011FA94ED0A1B53EC112B00F078
:10402000F7FF53EC182B01F007FA94ED081B53EC43
:10403000112B00F0EDFF41EC100B53EC182B51EC61
:10404000100B01F0F9F994ED061B53EC112B00F065
:10405000DFFF53EC182B01F0EFF994ED040B53EC58
:10406000102B00F0D5FF41EC100B53EC182B51EC4A
:10407000100B01F0E1F994ED021B53EC112B00F051
:10408000C7FF53EC182B01F0D7F994ED001B53EC4C
:10409000112B00F0BDFFBDEC028B41EC100B70BD8D
:1040A00010B553EC102B51EC100B00F0B1FF41ECAC
:1040B000100B10BD10B553EC112B51EC100B00F090
:1040C000A7FF41EC100B10BD9FED050B10B553EC95
:1040D000102B51EC100B01F043F841EC100B10BD0C
:1040E00000000000000000009FED050B10B553EC30
:1040F000102B51EC100B01F09FF941EC100B10BD8F
:10410000000000000000001010B541EC100BFFF79C
:10411000E7FC51EC100B10BD82B0CDE9000121F09D
:10412000004001909DED000B02B051EC100B704768
:1041300010B54D482DED108BF0EE009A90ED000A71
:1041400090ED019A90ED028A20EE29AA69EE29AA43
:10415000D0ED038A2AEE080A0AEEE80A10EE100AE9
:1041600001F02AFC41EC100BFFF70AFB9FED3FBB6F
:1041700051EC100B53EC1B2B01F05EF99FED3DCB86
:1041800053EC1C2B00F0ECFF00F010FFF8EE00EAFF
:1041900028EE29EA29EE2E0AB7EE00FA374C20EE77
:1041A000090A20600EEE480A30EE0F0A10EE100ADF
:1041B00001F002FC2EEE280A41EC1D0B0AEE090A62
:1041C00010EE100A01F0F8FB41EC100BB0EE4D1AA6
:1041D000F0EE6D1AFFF7F0FD53EC1B2B51EC100BBA
:1041E00001F02AF953EC1C2B00F0BAFF00F0DEFEC0
:1041F00028EE2E0A68EEA90A606020EE080A00EE9A
:10420000E80A30EE0F0A10EE100A01F0D5FB2AEE94
:10421000880A41EC190B0AEE280A10EE100A01F088
:10422000CBFB41EC100BB0EE491AF0EE691AFFF728
:10423000C3FD53EC1B2B51EC100B01F0FDF853ECBC
:104240001C2B00F08DFF00F0B1FE0749A06094ED3B
:10425000000A4C3981ED0B0A94ED010A81ED0A0A3E
:104260000863BDEC108B10BDD000002000000000E2
:104270000080664000000040FB210940AC010020A6
:104280001CB5BB208DF800000721684600F0D6FA67
:10429000BDF8010041BA0548C181BDF8031049BA13
:1042A0000182BDF8051049BA41821CBD840000207E
:1042B0001CB5C3208DF800000721684600F0BEFA47
:1042C000BDF8010041BA05480181BDF8031049BAA3
:1042D0004181BDF8051049BA81811CBD84000020D0
:1042E00070B5274C9FED250A002584ED000A84ED6A
:1042F000010A84ED020A234EFFF7DAFFB6F908003F
:10430000D4ED000A00EE100AB8EEC00A30EE800AC2
:1043100084ED000AB6F90A00D4ED010A00EE100A95
:10432000B8EEC00A30EE800A84ED010AB6F90C003E
:10433000D4ED020A00EE100A0520B8EEC00A30EEF5
:10434000800A84ED020AFCF751FD6D1CADB2642DAC
:10435000D2D3D4ED000A9FED0C0A80EE801A84EDD2
:10436000001AD4ED010A80EE801A84ED011AD4ED12
:10437000020A80EE801A84ED021A70BD000000006F
:10438000D0010020840000200000C84208B50020B1
:104390008DF800000A20FCF729FD00F02CF88021A0
:1043A0006B2000F069FA0220FCF720FD69466B20C3
:1043B00000F01EFA9DF800004128F7D101216B2082
:1043C00000F05AFA00216C2000F056FA01211A2060
:1043D00000F052FA0721192000F04EFA18211B2094
:1043E00000F04AFA10211C2000F046FA03211D209B
:1043F00000F042FA08BD08B500208DF800006946BB
:10440000752000F0F5F90A20FCF7F0FC9DF800009B
:104410001228F4D108BD000010B5FFF731FFFFF7F7
:1044200047FF00F025F9204800F042F8FFF780FE32
:104430001E480178491CC9B20170642932D91A4951
:1044400000220C390270D1ED010AB2EE040A60EECE
:10445000800AFDEEE00A10EE903A4380D1ED000AAA
:1044600060EE800AFDEEE00A10EE903A8380D1ED16
:10447000020A20EE800ABDEEC00A10EE101AC180BA
:104480004188A0F84410A0F84630C188A0F8481030
:10449000403000218272435CD2B21A44491C8272BD
:1044A0000A29F8DB10BD0000B801002084000020BC
:1044B00000B502462DED028B9FED6B4A6B4B90EDE4
:1044C000030AD0ED040A92ED051AD3ED003A60EE2E
:1044D000201AD3ED014A93ED023AD3ED032A61EE9F
:1044E000811A23EEA36A63EEA45A23EE835A64EE84
:1044F000A46A64EEA28A23EE037A23EE228A62EE95
:10450000A27AF5EEC01AF1EE10FA7CD020EE000A85
:1045100000EEA00A01EE010A00F09AFAD2ED030AB9
:1045200038EEC51A514860EE801A4C38C2ED031AB5
:10453000D2ED040A20EE802A82ED042AD2ED050A8B
:1045400020EE800AF0EE000A21EE205A35EE881A9D
:1045500082ED050A61EE205A76EE660A20EE051A13
:1045600070EEC70A30EEA76A62EE060A01EEC61ABE
:1045700061EEA51A40EE650A42EE451A90ED072A53
:1045800004EE202A80ED072A90ED080A04EE010AC5
:1045900080ED080A90ED090A04EE210A80ED090A6F
:1045A00092ED000A90ED055A05EE200AD0ED060ABC
:1045B00000EE820A82ED000AD2ED010A90ED052A92
:1045C00090ED065A42EE010A90ED081A45EE010AF6
:1045D000C2ED010A92ED021A02EE211AD0ED091A7B
:1045E00005EE211A64EEC01A43EE601A82ED021A3B
:1045F00042EEC11A41EE843A60EE231A43EE011AEC
:1046000042EEE01A00E02BE041EE844A60EEA31A8D
:1046100044EEC11A21EE231A04EEA01A42EE801ACB
:1046200001EE843A03EE401A23EEA30A04EEA40A34
:1046300041EE042A03EE030A02EEA20A00F008FA91
:1046400063EE800AC3ED000A64EE800AC3ED010A3E
:1046500063EE000A22EE800AC3ED020A83ED030A2C
:10466000BDEC028B00BD00006F12033AD0000020A9
:1046700010B59FED550A554991ED031ADFED540A27
:10468000544861EE201AB0F90E2001EE102AB8EE5F
:10469000C11A21EE002A9FED501A42EE011AC1ED17
:1046A000031AB0F91020D1ED041A02EE102A61EEBF
:1046B000A01AB8EEC22A22EE002A42EE011AC1ED7B
:1046C000041AD1ED051AB0F9122061EEA00A01EE2C
:1046D000902A01F11802F8EEE11A21EE800A40EE6C
:1046E000010A9FED3E1AC1ED050AB0F90830D2ED7E
:1046F000001A00EE103ADFED3A0AB8EEC00A30EECA
:10470000610A20EE010A80EE202A9FED360AC2EEF1
:10471000002AC1ED002AB0F90A40D2ED012A02EECA
:10472000104AB8EEC22A32EE622A22EE013A83EE35
:10473000202A82EE003A81ED013A92ED022AB0F988
:104740000C2003EE102AB8EEC33A33EE423A23EEC1
:10475000013A83EE201AC1EE000AC1ED020A00EE12
:10476000903A90ED0D3AF8EEE00A70EEE10A80EE34
:10477000801ADFED1D0A61EE201A9FED1C1A43EE30
:10478000011AC0ED0D1A01EE904AF8EEE11A71EE31
:10479000E22AC2EE801AD0ED0E2A61EEA01A42EE95
:1047A000811AC0ED0E1A01EE902AF8EEE11A71EEB0
:1047B000C21A81EE802A22EE200AD0ED0F0A00EE06
:1047C000810A80ED0F0A10BD9A99993EB801002028
:1047D0003333333F8400002000008039DA0F494032
:1047E0000000344333338341CDCC4C3ECDCC4C3FE1
:1047F0007CB5104E0C460546002210213046FCF7D1
:1048000004FC45F080008DF8040020788DF8050048
:104810004FF4FA7001AA0090022311460648FDF7F2
:1048200098F9012210213046FCF7EFFB9DF80500B6
:1048300020707CBD00000240CC030020F8B50C4E77
:104840000D460446002210213046FCF7DEFB4FF4F3
:10485000FA70224600902B4611460648FDF779F97A
:104860003046BDE8F84001221021FCF7CEBB000025
:1048700000000240CC030020F8B50C4E0C46054663
:10488000002210213046FCF7C0FB8DF800508DF857
:1048900001404FF4FA73022269460548FDF7A6F875
:1048A000012210213046FCF7B0FBF8BD00000240A9
:1048B000CC03002019489FED180ADFED190A80ED9E
:1048C000050A80ED060A80ED070A80ED110A80EDE9
:1048D000120A80ED130A9FED131A2030F2EE001A2F
:1048E000E0EC030A0021E0EC030ADFED0F0AC0ED63
:1048F000000A80ED010A80ED020A00F8381D80ED03
:10490000140A80ED150A80ED160A80ED170A80ED75
:10491000180A80ED190A704700000000E00000202E
:104920009A99993F0AD7233CCDCCCC3F10B5074C80
:1049300020212046FCF764FB30B100222046BDE870
:1049400010402021FCF761BB0122F7E70004024080
:10495000FCF788FCFEF71EFBFEF7FAF8FEF7C2F83C
:10496000FEF748FAFEF78CF8FEF722FAFEF7A4F9F4
:10497000FEF77EF9FEF73CF9FEF75AF980220C4962
:104980000C48FDF72FFC0A49802280310A48FDF7C8
:1049900029FCFEF7D9FA00F011F8FFF7F7FCFFF752
:1049A0009FFCFFF787FF00BFFEF7D4FAFCE700008B
:1049B000DC010020B00400206C04002070B5002150
:1049C0001748FDF7ABFB164C4FF4FA6620684663B8
:1049D00004212046FDF7A2FB2068866308212046BB
:1049E000FDF79CFB2068C6630C212046FDF796FB73
:1049F000206806643046FCF7F9F9206875104563B5
:104A0000206885632068C563206805643046FCF72C
:104A1000EDF90448058045808580C58070BD0000A3
:104A20002404002064000020084907480B6802881D
:104A30005A630B6842889A630B688288DA63096854
:104A4000C08808647047000064000020240400202F
:104A500010EE100AF6EE000A0B4960EE200AA1EBF8
:104A6000600000EE100AB7EE081A20EE802AF0EE81
:104A7000411A42EE401A21EE800A60EE800A00EEF2
:104A8000C01A21EE000A7047865A375FF0B55248C7
:104A9000B0F80110C1F30A0200F11A010A8082780D
:104AA000D308C27843EA4213C3F30A034B80037965
:104AB000920942EA8303427943EA8223C3F30A0359
:104AC0008B805308827943EAC213C3F30A03CB8075
:104AD0001309C27943EA0213C3F30A030B81037A71
:104AE000D20942EA4303427A43EA4223C3F30A0368
:104AF0004B819308827A43EA8213C3F30A038B81C2
:104B0000C37A520942EAC302CA818289C2F30A0205
:104B10000A82427BD308827B43EA4213C3F30A032F
:104B20004B82C37B920942EA8303027C43EA8223DD
:104B3000C3F30A038B825308427C43EAC213C3F3D4
:104B40000A03CB821309827C43EA0213C3F30A03EC
:104B50000B83C37CD20942EA4303027D6FF00A074C
:104B600043EA4223C3F30A034B839308427D40F296
:104B7000BB4543EA8213C3F30A038B83807D52094A
:104B800042EAC000C88300221448144664264FF04D
:104B90000C0C00BF31F81230A3F5C873BB4202DA27
:104BA00083181C710AE0AB4202DD83181E7105E018
:104BB00093FBFCF300EB020E8EF80430521C102A1B
:104BC000E8DB04750021027D435C491C1A44027530
:104BD0001429F8DBF0BD0000700100206C000020FB
:104BE000704700B52DED048B83B041EC190B00F03C
:104BF0002DFD41EC180B18EE100A18EE901A8DEDF1
:104C0000008B002818BF0120084320F00040C0F1AD
:104C10007F6000F1E040C00F14D019EE101A19EEB9
:104C2000900A8DED009B002918BF0121084320F058
:104C30000040C0F17F6000F1E040C00F04BF0120E0
:104C4000FBF7C8FB51EC180B03B0BDEC048B00BDA7
:104C50002DE9F0417B484FF448722DED028B8179AC
:104C6000794C01EB810102EB410100EE101AB8EE24
:104C7000400A84ED010A027A2270017900EE101ACE
:104C8000B8EE400ADFED710AB0EE041A70EE601A59
:104C900081EE810A84ED170A417901EE901A6C4980
:104CA000F8EE611A71EEE01A81EE812A84ED182A7D
:104CB00091ED001A30EE410ADFED662A664B20EED8
:104CC000220A10EE101A84ED140A9FED641A644D46
:104CD000DFED641A994202DD84ED141A05E010EE4E
:104CE000101AA94201D9C4ED141A5F4991ED000AC6
:104CF00032EE400A20EE220A10EE101A84ED150A58
:104D0000994202DD84ED151A05E010EE101AA94251
:104D100001D9C4ED151AC079544D00EE100A544E55
:104D2000544FB8EE400ADFF85081462A30EE600A50
:104D3000FEEE000A20EE200A84ED160A77D94F48CD
:104D4000D4ED140A404990ED000A443130EE600A77
:104D50009FED4B8AF0EE482ADFED4A8A04F12002EB
:104D6000A1F13000D2EC030AB0EE682A00F090F80E
:104D7000454884ED020AD4ED150A90ED000A324947
:104D800004F12C0230EE600A4831D2EC030AF0EE56
:104D9000482AB0EE682AA1F1300000F079F83B48CB
:104DA00084ED030AD4ED160A90ED000A264904F1B9
:104DB000380230EE600A4C31D2EC030AF0EE482A99
:104DC000B0EE682AA1F1300000F062F884ED040A28
:104DD000D4ED011A94ED021AD4ED030A31EE812AC2
:104DE00031EEC11A72EE202A32EE602A71EE601A9C
:104DF00071EE200A72EE802A32EE402A71EE801A9D
:104E000030EEC00AFCEEE22ABCEEC22AFCEEE11A49
:104E100012EE900ABCEEC00A288012EE100A308012
:104E200011EE900A388010EE100A05E0FFE74FF40B
:104E30007A70288030803880A8F80000BDEC028BA2
:104E4000BDE8F0816C000020E00000200000484236
:104E5000AC0000209A99193F00003442000034420F
:104E6000000034C2000034C2B00000206400002002
:104E700066000020680000206A000020B8000020C2
:104E8000000096430080BB44BC000020C00000200E
:104E9000B0EE403A90ED000A30EE030A80ED000AD1
:104EA000B4EEC20AF1EE10FA01DD80ED002AD0ED79
:104EB000003AB1EE420AF4EEC03AF1EE10FA01D235
:104EC00080ED000A20EE830AD0ED000A01EE200AF0
:104ED000D1ED000A73EE600A01EEA00AB4EEE20A18
:104EE000F1EE10FA01DDB0EE620AF1EE620AB4EE04
:104EF000E00AF1EE10FA01D2B0EE600A81ED003A5C
:104F00007047000010B51D482DED028BFBF704FD26
:104F100064211A48FBF7AAFC1848FBF749FC184C17
:104F200060801648FBF776FD606800F045FD41ECB7
:104F3000180B608800F06CFA9FED121B53EC112BDC
:104F400000F07AFA9FED111B53EC112B00F074FA6C
:104F500053EC182B00F070FA00F028F800EE100A5D
:104F6000F2EE040A84ED020A20EE200ABCEEC00A2A
:104F700010EE100A2070BDEC028B10BDDC02002088
:104F8000580000206666666666664A3F00000000BC
:104F90000000264081F00041704780F000407047DB
:104FA00021F00041704720F00040704721F000429E
:104FB000A2F16052B2F5801F01F0004328BFD2F188
:104FC0007F6C0BD95FEA001C43EAC20242EB5070CF
:104FD00018BF704728BF20F001007047B2F5801F4E
:104FE000BCBF184670474FEA410C1CF5001F02D2A7
:104FF000084600F057BD70B500F0C8FA00000089FF
:10500000FFF7F6BF4FF00040A0F5800070470000AA
:1050100010B591EA030F48BF83F0004300F1EA8323
:10502000841A71EB030C05D2121943EB0C03001B1D
:1050300061EB0C01DFF824E14FEA1154A4EB135C9F
:105040001EEA430F18BF9EEA445F73D023EA0E03A3
:10505000DCF1200E21EA045143F4801332D322FA0A
:105060000CFE10EB0E0023FA0CFE41EB0E01CCF10E
:10507000200E03FA0EFE10EB0E0051F10001B1F507
:10508000801FCCF1200E32D201EB045112FA0EF245
:10509000BDE8104058BF7047401C38BF5FEA42026D
:1050A00018BF7047002814BF20F0010041F1000133
:1050B0004FEA410313F5001F38BF7047A1F1C0410B
:1050C00000F0B2BA012A43EB0302ACF1200CDCF190
:1050D0001F0E32BF4FF0000E23FA0CF310EB03004B
:1050E00041EB0451B4EB115FD0D0A1EB045101F5B9
:1050F000801149085FEA300001EB04510ED350F1F2
:10510000000038BF12FA0EFE08D1BDE81040C9E712
:10511000401C38BF5FEA4202CAD1C3E7BDE8104075
:105120004FEA410313F5001F38BF7047A1F1C0419A
:1051300000F07ABA9EEA445F08D011EA5E0FBDE83B
:10514000104004BF01F0004100207047BDE810404E
:1051500070B500F01BFA00BF64FBBE3E0000E0FF2C
:105160002DE9C04130B4DFF8A0C23CEA111418BFE9
:105170003CEA131400F0EC8081EA03051CEA1114E8
:1051800044EAD57418BF1CEA131500F0C780A4EBDD
:1051900005044FF0004545EAC12145EAC32341EA31
:1051A000505143EA525304F17F74994204F500349C
:1051B0004FEAC0204FEAC22208BF904200F09C8014
:1051C0004FEA13650FF24016765D4FEA134506FB72
:1051D00005F7C7F1807706FB07F74FEAD737A7FB3C
:1051E00003687642C8F58038A7FB06CE38BFA8F121
:1051F000010807FB08E64FF0000EA6FB028CE6FB59
:1052000003CEDCF1000CCEF1004E38BFAEF1010E42
:10521000A6FB0C584FF000074FF00005E6FB0E8789
:10522000A1FB08C6A0FB07CE16EB0E0645F1000554
:10523000E1FB076515F1E04E7EBFA4F580345FEA1F
:1052400046066D4116F1800745F100054FEA172724
:105250004FEA066647EA0567A6F1DE46B6F1805FCB
:105260004FEA15251FD9384624F0010C05EBC4710F
:10527000BCF1FE6F01EB0C1102D8F0BCBDE800815F
:1052800024425CBF01F5801E9EEAC47F02D4F0BCBC
:10529000BDE80081244238D4F0BCA1F1C041BDE892
:1052A000004100F0C1B94FEAD22242EA43524FEA2C
:1052B000D323A7FB02864FEAD02040EA415007FBE8
:1052C00003661EEA0E0F4FEAD12105FB026658BFA6
:1052D000A6EB0056B6EB00564FEA520E4EEAC37EDE
:1052E00018EB0E0E56EB530EBDD518EB02085E41BF
:1052F0007F1C55F10005B6E74FF480154FF000070D
:105300004FF000064FF00008ADE7F0BC4FF0000092
:1053100001F1C04101F00041BDE8008111EA0C1F1C
:105320000CEA131500D00CE013EA0C1F00F02580E6
:105330004FF00000F0BC81EA030101F00041BDE83C
:105340000081F0BCBDE8004181EA030100F06CB9C6
:10535000F0BCBDE8004170B500F018F9097EFC3ED4
:1053600000F007B881EA03014FF0000001F00041AE
:10537000704781EA030100F057B9F0BCBDE8004175
:105380004FF0000021497047FFFDFBF9F7F5F4F2FB
:10539000F0EEEDEBE9E8E6E4E3E1E0DEDDDBDAD8D0
:1053A000D7D5D4D3D1D0CFCDCCCBCAC8C7C6C5C42E
:1053B000C2C1C0BFBEBDBCBBBAB9B8B7B6B5B4B345
:1053C000B2B1B0AFAEADACABAAA9A8A8A7A6A5A430
:1053D000A3A3A2A1A09F9F9E9D9C9C9B9A999998F4
:1053E0009797969595949393929191908F8F8E8E97
:1053F0008D8C8C8B8B8A8989888887878685858424
:1054000084838382828181800000FF070000F87F0F
:10541000B0FA80F310FA03F10AD0C3F11D0303F5CB
:1054200080634FEA41504FEA035202EBD1217047AB
:105430004FF0000070470000DFF848C170B51CEA6B
:10544000111E1EBF1CEA13159EEA0C0F95EA0C0FE5
:1054500000F06F8081EA030423EA4C134EEAD47E05
:1054600021EA4C1141F4801143F48013AE44A1FBB6
:10547000024CA0FB0365AEF17F7E361955EB0C059F
:10548000A1FB034C4CF10003A0FB021C16EB0C0625
:10549000654153F10003094218BF46F0010613F4B9
:1054A000007F0BD14FEA03314FEA0530340341EA64
:1054B000155140EA16506FF003020AE04FEAC3218B
:1054C0004FEAC520F40241EA555140EA56506FF0C8
:1054D000020202EB2E4201EB025585EACE710AD0A0
:1054E0005FEA440C18BF24F0004450F1000041F181
:1054F000000120EAD47040F2FE7C624500D270BD0B
:10550000A84214BF4FF080444FF04044002E08BF23
:105510000024BEF1806FA8BFA1F1C041BDE870407A
:1055200080F282804FF0000001F1C04101F00041A3
:1055300070479EEA0C0F0CEA131518BF95EA0C0F82
:1055400006D04FF0000081EA030E0EF0004170BD5E
:1055500000F01CF88900013E00F007B800F009B81F
:105560004FEA430C5FEA5C5C08D081EA030100F07B
:105570005BB84FEA410C5FEA5C5CF6D14FF000008B
:10558000014970470000FF070000F87F0EF1020E8E
:105590002EF0030E5EF8046B364205D4012A43EB6D
:1055A000030515F5001F12D8012841EB010C1CF56D
:1055B000001F0CD80ED14FEAD17C15F5001F0CEB63
:1055C0004C0C0CF1020C08BF4CEBD37C04E04FF008
:1055D000080C01E04FEAD37C0CEB4C0526FA05F6EB
:1055E00006F00706B6F1040C06D20EEB860CBDE8F9
:1055F00070404CF0010C6047DFE80CF0090B020230
:105600004FF000414FF00000A1F5002170BD194698
:105610001046012851EB010418BFD4F5001484BFD3
:10562000002001F0004170BD0808A0F500114FEA0C
:105630003101704791EA030F10B581F000413FF549
:10564000EFAC83F0004300F0D5B800002DE9F04145
:1056500001F5801CBCF5001FC0F2A9804FEA115C67
:1056600021EA0C510CF1FD0C41F480115FEA5C0C55
:105670000CF5C07C01D34000494130A4890241EAC5
:10568000905187028E0E0A0CA45D04FB04F602FB07
:1056900006F6C6F14046A4FB0662F60D46EA42262F
:1056A00006FB06F4A4FB01235242C3F1404338BF7A
:1056B0005B1EA6FB02420024E6FB0324D20B42EA57
:1056C0004446A6FB0623A1FB02E2A3FB07E4E3FB9F
:1056D00061426442C2F1404E38BFAEF1010EA6FBFA
:1056E00004234FF00002E6FB0E32A2FB0346340017
:1056F000E2FB6264A1FB06E6A4FB07E8E4FB616849
:105700007642C8F1405838BFA8F10108A2FB06E470
:10571000A3FB08E5E2FB6854A1FB05E6A7FB04E850
:10572000E1FB648618F1200556F10006A809A8F1EE
:105730001B08B10908F03F08B8F10A0F40EA86607B
:105740001CD901EB0C51BDE8F08100BFFCF5EEE87F
:10575000E2DDD8D3CFCBC7C3C0BDB9B6B4B1AEAC10
:10576000A9A7A5A3A19F9D9B9A9896959392908F88
:105770008D8C8B898887868584838281A0FB0068D5
:1057800000FB01F208EB4208B8EB872807D5341874
:1057900058EB0104D5D5401C51F10001D1E7341A72
:1057A00078EB0104CDD4401E71F10001C9E75FEA36
:1057B0004C0C5FEA9C5C0DD105D34FF0000001F06A
:1057C0000041BDE8F081BDE8F04170B5FFF7DEFEB5
:1057D0006DDBFFBEBDE8F0414FF0000000497047AF
:1057E0000000F87F10B591EA030F48BF83F0004333
:1057F0003FF516AC841A71EB030C07D212198CF02A
:10580000004C43EB0C03001B61EB0C01DFF8A4E13F
:105810004FEA1154A4EB135C1EEA430F18BF9EEA33
:10582000445F00F0B08023EA6E03524221EA045143
:10583000C3EB6E0338BF5B1EDCF1200E25D322FACA
:105840000CFE10EB0E0043FA0CFE41EB0E01CCF106
:10585000200E03FA0EFE10EB0E0051F10001CCF108
:10586000200E29D412FA0EF201EB0451BDE81040CB
:1058700058BF7047401C1CBFB2F1004F7047002852
:105880000CBF491C20F00100704712EB020E43EBE5
:10589000030218BF4FF0010E4EEA4202ACF1200C99
:1058A000DCF11E0E54D943FA0CFE10EB0E0051F140
:1058B000FF31CCF11E0ED5D50EF1010E12FA0EFEFF
:1058C000404141EB010101EB445C5FEA5C5C10D9B3
:1058D00010EBDE7001EB045138BFBEF1004FBDE8A4
:1058E000104018BF704700280CBF491C20F0010071
:1058F000704730D24FEAD42C11F5001124F4006423
:105900001BD0B1FA81F20B3AA41AA41ED2F12003E3
:10591000914030FA03F31943904001EBCC71002C15
:1059200001EB0451BDE81040A8BF704701F1C04130
:105930004FF0000001F000417047B0FA80F310FA18
:1059400003F100D110BDE41A173C4805C90AE4E789
:1059500001EB045110BD491001EB0451BDE81040AA
:105960004FEA300002E04FF0000170474A0008BFE4
:105970000042F8D0B2F5001F28BF704701F0004187
:105980004FF0000070479EEA445F07D011EA5E0FB7
:10599000BDE8104004BF002100207047BDE8104062
:1059A00070B5FFF7F3FD00BF40DFF63E83F0004126
:1059B000104670470000E0FF43004FEAD30C4FEA67
:1059C0003C0C43401FBF40070CF1605113F0FE4FE9
:1059D00070471CF0006F03D100200CF000417047AD
:1059E0000CF0004343EA507010B540EACC0000F0E0
:1059F0000EF800BF000000924FEA0001FFF714BE4E
:105A00004FF000414FF00000A1F5002170470EF16A
:105A1000020E2EF0030E5EF8044B244204D44FEA2B
:105A20004102B2F17F4F11D84FEA4003B3F17F4FEB
:105A30000CD80ED14FEAD07CB2F17F4F0CEB4C0C5E
:105A40000CF1020C08BF4CEBD17C04E04FF0080CC9
:105A500001E04FEAD17C0CEB4C0324FA03F404F090
:105A60000704B4F1040C06D20EEB840CBDE8104020
:105A70004CF0010C6047DFE80CF0070802024FF021
:105A80000040A0F5800010BD0846420018BFD2F1CA
:105A9000807288BF00F0004010BD4FF04070E1EE12
:105AA000100A7047FF2141EAD050C0057047000638
:105AB0001016000610160000000000000000010291
:105AC00003040607080900000000010203040000A7
:105AD000555555555555C53F7D6FEB0312D6D4BF6F
